{
  "address": "0x8D778F6510356416E0754F77EA6d7684Df0fd3D3",
  "abi": [
    {
      "inputs": [
        {
          "internalType": "address",
          "name": "priceFeedAddress",
          "type": "address"
        },
        {
          "internalType": "string",
          "name": "lowSvg",
          "type": "string"
        },
        {
          "internalType": "string",
          "name": "highSvg",
          "type": "string"
        },
        {
          "internalType": "int256",
          "name": "highValue",
          "type": "int256"
        }
      ],
      "stateMutability": "nonpayable",
      "type": "constructor"
    },
    {
      "anonymous": false,
      "inputs": [
        {
          "indexed": true,
          "internalType": "address",
          "name": "owner",
          "type": "address"
        },
        {
          "indexed": true,
          "internalType": "address",
          "name": "approved",
          "type": "address"
        },
        {
          "indexed": true,
          "internalType": "uint256",
          "name": "tokenId",
          "type": "uint256"
        }
      ],
      "name": "Approval",
      "type": "event"
    },
    {
      "anonymous": false,
      "inputs": [
        {
          "indexed": true,
          "internalType": "address",
          "name": "owner",
          "type": "address"
        },
        {
          "indexed": true,
          "internalType": "address",
          "name": "operator",
          "type": "address"
        },
        {
          "indexed": false,
          "internalType": "bool",
          "name": "approved",
          "type": "bool"
        }
      ],
      "name": "ApprovalForAll",
      "type": "event"
    },
    {
      "anonymous": false,
      "inputs": [
        {
          "indexed": true,
          "internalType": "address",
          "name": "from",
          "type": "address"
        },
        {
          "indexed": true,
          "internalType": "address",
          "name": "to",
          "type": "address"
        },
        {
          "indexed": true,
          "internalType": "uint256",
          "name": "tokenId",
          "type": "uint256"
        }
      ],
      "name": "Transfer",
      "type": "event"
    },
    {
      "inputs": [
        {
          "internalType": "address",
          "name": "to",
          "type": "address"
        },
        {
          "internalType": "uint256",
          "name": "tokenId",
          "type": "uint256"
        }
      ],
      "name": "approve",
      "outputs": [],
      "stateMutability": "nonpayable",
      "type": "function"
    },
    {
      "inputs": [
        {
          "internalType": "address",
          "name": "owner",
          "type": "address"
        }
      ],
      "name": "balanceOf",
      "outputs": [
        {
          "internalType": "uint256",
          "name": "",
          "type": "uint256"
        }
      ],
      "stateMutability": "view",
      "type": "function"
    },
    {
      "inputs": [
        {
          "internalType": "uint256",
          "name": "tokenId",
          "type": "uint256"
        }
      ],
      "name": "getApproved",
      "outputs": [
        {
          "internalType": "address",
          "name": "",
          "type": "address"
        }
      ],
      "stateMutability": "view",
      "type": "function"
    },
    {
      "inputs": [],
      "name": "i_highValue",
      "outputs": [
        {
          "internalType": "int256",
          "name": "",
          "type": "int256"
        }
      ],
      "stateMutability": "view",
      "type": "function"
    },
    {
      "inputs": [],
      "name": "i_priceFeed",
      "outputs": [
        {
          "internalType": "contract AggregatorV3Interface",
          "name": "",
          "type": "address"
        }
      ],
      "stateMutability": "view",
      "type": "function"
    },
    {
      "inputs": [
        {
          "internalType": "address",
          "name": "owner",
          "type": "address"
        },
        {
          "internalType": "address",
          "name": "operator",
          "type": "address"
        }
      ],
      "name": "isApprovedForAll",
      "outputs": [
        {
          "internalType": "bool",
          "name": "",
          "type": "bool"
        }
      ],
      "stateMutability": "view",
      "type": "function"
    },
    {
      "inputs": [],
      "name": "mintNft",
      "outputs": [],
      "stateMutability": "nonpayable",
      "type": "function"
    },
    {
      "inputs": [],
      "name": "name",
      "outputs": [
        {
          "internalType": "string",
          "name": "",
          "type": "string"
        }
      ],
      "stateMutability": "view",
      "type": "function"
    },
    {
      "inputs": [
        {
          "internalType": "uint256",
          "name": "tokenId",
          "type": "uint256"
        }
      ],
      "name": "ownerOf",
      "outputs": [
        {
          "internalType": "address",
          "name": "",
          "type": "address"
        }
      ],
      "stateMutability": "view",
      "type": "function"
    },
    {
      "inputs": [],
      "name": "s_highImageURI",
      "outputs": [
        {
          "internalType": "string",
          "name": "",
          "type": "string"
        }
      ],
      "stateMutability": "view",
      "type": "function"
    },
    {
      "inputs": [],
      "name": "s_lowImageURI",
      "outputs": [
        {
          "internalType": "string",
          "name": "",
          "type": "string"
        }
      ],
      "stateMutability": "view",
      "type": "function"
    },
    {
      "inputs": [],
      "name": "s_tokenCounter",
      "outputs": [
        {
          "internalType": "uint256",
          "name": "",
          "type": "uint256"
        }
      ],
      "stateMutability": "view",
      "type": "function"
    },
    {
      "inputs": [
        {
          "internalType": "address",
          "name": "from",
          "type": "address"
        },
        {
          "internalType": "address",
          "name": "to",
          "type": "address"
        },
        {
          "internalType": "uint256",
          "name": "tokenId",
          "type": "uint256"
        }
      ],
      "name": "safeTransferFrom",
      "outputs": [],
      "stateMutability": "nonpayable",
      "type": "function"
    },
    {
      "inputs": [
        {
          "internalType": "address",
          "name": "from",
          "type": "address"
        },
        {
          "internalType": "address",
          "name": "to",
          "type": "address"
        },
        {
          "internalType": "uint256",
          "name": "tokenId",
          "type": "uint256"
        },
        {
          "internalType": "bytes",
          "name": "_data",
          "type": "bytes"
        }
      ],
      "name": "safeTransferFrom",
      "outputs": [],
      "stateMutability": "nonpayable",
      "type": "function"
    },
    {
      "inputs": [
        {
          "internalType": "address",
          "name": "operator",
          "type": "address"
        },
        {
          "internalType": "bool",
          "name": "approved",
          "type": "bool"
        }
      ],
      "name": "setApprovalForAll",
      "outputs": [],
      "stateMutability": "nonpayable",
      "type": "function"
    },
    {
      "inputs": [
        {
          "internalType": "bytes4",
          "name": "interfaceId",
          "type": "bytes4"
        }
      ],
      "name": "supportsInterface",
      "outputs": [
        {
          "internalType": "bool",
          "name": "",
          "type": "bool"
        }
      ],
      "stateMutability": "view",
      "type": "function"
    },
    {
      "inputs": [
        {
          "internalType": "string",
          "name": "svg",
          "type": "string"
        }
      ],
      "name": "svgToImageURI",
      "outputs": [
        {
          "internalType": "string",
          "name": "",
          "type": "string"
        }
      ],
      "stateMutability": "pure",
      "type": "function"
    },
    {
      "inputs": [],
      "name": "symbol",
      "outputs": [
        {
          "internalType": "string",
          "name": "",
          "type": "string"
        }
      ],
      "stateMutability": "view",
      "type": "function"
    },
    {
      "inputs": [
        {
          "internalType": "uint256",
          "name": "",
          "type": "uint256"
        }
      ],
      "name": "tokenURI",
      "outputs": [
        {
          "internalType": "string",
          "name": "",
          "type": "string"
        }
      ],
      "stateMutability": "view",
      "type": "function"
    },
    {
      "inputs": [
        {
          "internalType": "address",
          "name": "from",
          "type": "address"
        },
        {
          "internalType": "address",
          "name": "to",
          "type": "address"
        },
        {
          "internalType": "uint256",
          "name": "tokenId",
          "type": "uint256"
        }
      ],
      "name": "transferFrom",
      "outputs": [],
      "stateMutability": "nonpayable",
      "type": "function"
    }
  ],
  "transactionHash": "0xac71a6f7cc3df10ce1b9507282f373b9a7a66ba7a9e2682f733d07950a2aa3bf",
  "args": [
    "0x8A753747A1Fa494EC906cE90E9f37563A8AF630e",
    "<?xml version=\"1.0\" standalone=\"no\"?>\n<svg width=\"1024px\" height=\"1024px\" viewBox=\"0 0 1024 1024\" xmlns=\"http://www.w3.org/2000/svg\">\n  <path fill=\"#333\" d=\"M512 64C264.6 64 64 264.6 64 512s200.6 448 448 448 448-200.6 448-448S759.4 64 512 64zm0 820c-205.4 0-372-166.6-372-372s166.6-372 372-372 372 166.6 372 372-166.6 372-372 372z\"/>\n  <path fill=\"#E6E6E6\" d=\"M512 140c-205.4 0-372 166.6-372 372s166.6 372 372 372 372-166.6 372-372-166.6-372-372-372zM288 421a48.01 48.01 0 0 1 96 0 48.01 48.01 0 0 1-96 0zm376 272h-48.1c-4.2 0-7.8-3.2-8.1-7.4C604 636.1 562.5 597 512 597s-92.1 39.1-95.8 88.6c-.3 4.2-3.9 7.4-8.1 7.4H360a8 8 0 0 1-8-8.4c4.4-84.3 74.5-151.6 160-151.6s155.6 67.3 160 151.6a8 8 0 0 1-8 8.4zm24-224a48.01 48.01 0 0 1 0-96 48.01 48.01 0 0 1 0 96z\"/>\n  <path fill=\"#333\" d=\"M288 421a48 48 0 1 0 96 0 48 48 0 1 0-96 0zm224 112c-85.5 0-155.6 67.3-160 151.6a8 8 0 0 0 8 8.4h48.1c4.2 0 7.8-3.2 8.1-7.4 3.7-49.5 45.3-88.6 95.8-88.6s92 39.1 95.8 88.6c.3 4.2 3.9 7.4 8.1 7.4H664a8 8 0 0 0 8-8.4C667.6 600.3 597.5 533 512 533zm128-112a48 48 0 1 0 96 0 48 48 0 1 0-96 0z\"/>\n</svg>\n",
    "<svg viewBox=\"0 0 200 200\" width=\"400\"  height=\"400\" xmlns=\"http://www.w3.org/2000/svg\">\n  <circle cx=\"100\" cy=\"100\" fill=\"yellow\" r=\"78\" stroke=\"black\" stroke-width=\"3\"/>\n  <g class=\"eyes\">\n    <circle cx=\"61\" cy=\"82\" r=\"12\"/>\n    <circle cx=\"127\" cy=\"82\" r=\"12\"/>\n  </g>\n  <path d=\"m136.81 116.53c.69 26.17-64.11 42-81.52-.73\" style=\"fill:none; stroke: black; stroke-width: 3;\"/>\n</svg>",
    180000000000
  ],
  "numDeployments": 5,
  "solcInputHash": "a11e5cc03a2ffea4e1f5f88417f4fa9b",
  "bytecode": "0x60c06040523480156200001157600080fd5b5060405162003a0c38038062003a0c833981810160405281019062000037919062000508565b6040518060400160405280600f81526020017f44796e616d696320535647204e465400000000000000000000000000000000008152506040518060400160405280600381526020017f44534e00000000000000000000000000000000000000000000000000000000008152508160009080519060200190620000bb929190620003ac565b508060019080519060200190620000d4929190620003ac565b5050506000600681905550620000f0836200017a60201b60201c565b6007908051906020019062000107929190620003ac565b5062000119826200017a60201b60201c565b6008908051906020019062000130929190620003ac565b508373ffffffffffffffffffffffffffffffffffffffff1660a08173ffffffffffffffffffffffffffffffffffffffff1660601b815250508060808181525050505050506200099a565b606060006040518060400160405280601a81526020017f646174613a696d6167652f7376672b786d6c3b6261736536342c00000000000081525090506000620001ef84604051602001620001cf9190620005ef565b6040516020818303038152906040526200021e60201b62000efa1760201c565b905081816040516020016200020692919062000608565b60405160208183030381529060405292505050919050565b60606000825114156200024357604051806020016040528060008152509050620003a7565b6000604051806060016040528060408152602001620039cc6040913990506000600360028551620002759190620006a5565b62000281919062000702565b60046200028f91906200073a565b90506000602082620002a29190620006a5565b67ffffffffffffffff811115620002be57620002bd62000912565b5b6040519080825280601f01601f191660200182016040528015620002f15781602001600182028036833780820191505090505b509050818152600183018586518101602084015b8183101562000362576003830192508251603f8160121c168501518253600182019150603f81600c1c168501518253600182019150603f8160061c168501518253600182019150603f811685015182536001820191505062000305565b6003895106600181146200037f576002811462000390576200039b565b613d3d60f01b60028303526200039b565b603d60f81b60018303525b50505050508093505050505b919050565b828054620003ba9062000819565b90600052602060002090601f016020900481019282620003de57600085556200042a565b82601f10620003f957805160ff19168380011785556200042a565b828001600101855582156200042a579182015b82811115620004295782518255916020019190600101906200040c565b5b5090506200043991906200043d565b5090565b5b80821115620004585760008160009055506001016200043e565b5090565b6000620004736200046d8462000659565b62000630565b90508281526020810184848401111562000492576200049162000946565b5b6200049f848285620007e3565b509392505050565b600081519050620004b88162000966565b92915050565b600081519050620004cf8162000980565b92915050565b600082601f830112620004ed57620004ec62000941565b5b8151620004ff8482602086016200045c565b91505092915050565b6000806000806080858703121562000525576200052462000950565b5b60006200053587828801620004a7565b945050602085015167ffffffffffffffff8111156200055957620005586200094b565b5b6200056787828801620004d5565b935050604085015167ffffffffffffffff8111156200058b576200058a6200094b565b5b6200059987828801620004d5565b9250506060620005ac87828801620004be565b91505092959194509250565b6000620005c5826200068f565b620005d181856200069a565b9350620005e3818560208601620007e3565b80840191505092915050565b6000620005fd8284620005b8565b915081905092915050565b6000620006168285620005b8565b9150620006248284620005b8565b91508190509392505050565b60006200063c6200064f565b90506200064a82826200084f565b919050565b6000604051905090565b600067ffffffffffffffff82111562000677576200067662000912565b5b620006828262000955565b9050602081019050919050565b600081519050919050565b600081905092915050565b6000620006b282620007d9565b9150620006bf83620007d9565b9250827fffffffffffffffffffffffffffffffffffffffffffffffffffffffffffffffff03821115620006f757620006f662000885565b5b828201905092915050565b60006200070f82620007d9565b91506200071c83620007d9565b9250826200072f576200072e620008b4565b5b828204905092915050565b60006200074782620007d9565b91506200075483620007d9565b9250817fffffffffffffffffffffffffffffffffffffffffffffffffffffffffffffffff048311821515161562000790576200078f62000885565b5b828202905092915050565b6000620007a882620007b9565b9050919050565b6000819050919050565b600073ffffffffffffffffffffffffffffffffffffffff82169050919050565b6000819050919050565b60005b8381101562000803578082015181840152602081019050620007e6565b8381111562000813576000848401525b50505050565b600060028204905060018216806200083257607f821691505b60208210811415620008495762000848620008e3565b5b50919050565b6200085a8262000955565b810181811067ffffffffffffffff821117156200087c576200087b62000912565b5b80604052505050565b7f4e487b7100000000000000000000000000000000000000000000000000000000600052601160045260246000fd5b7f4e487b7100000000000000000000000000000000000000000000000000000000600052601260045260246000fd5b7f4e487b7100000000000000000000000000000000000000000000000000000000600052602260045260246000fd5b7f4e487b7100000000000000000000000000000000000000000000000000000000600052604160045260246000fd5b600080fd5b600080fd5b600080fd5b600080fd5b6000601f19601f8301169050919050565b62000971816200079b565b81146200097d57600080fd5b50565b6200098b81620007af565b81146200099757600080fd5b50565b60805160a05160601c612ffb620009d160003960008181610a310152610b86015260008181610a0d0152610cb90152612ffb6000f3fe608060405234801561001057600080fd5b506004361061012c5760003560e01c806370a08231116100ad578063b88d4fde11610071578063b88d4fde14610345578063c2229fea14610361578063c87b56dd1461036b578063e2c6d0e11461039b578063e985e9c5146103b95761012c565b806370a082311461029f5780637e5bc3de146102cf578063957b8956146102ed57806395d89b411461030b578063a22cb465146103295761012c565b80631c05364a116100f45780631c05364a146101e957806323b872dd1461020757806330d871c61461022357806342842e0e146102535780636352211e1461026f5761012c565b806301ffc9a71461013157806306fdde0314610161578063081812fc1461017f578063095ea7b3146101af5780630b21a83b146101cb575b600080fd5b61014b60048036038101906101469190611eb7565b6103e9565b60405161015891906123fa565b60405180910390f35b6101696104cb565b604051610176919061244b565b60405180910390f35b61019960048036038101906101949190611f5a565b61055d565b6040516101a69190612393565b60405180910390f35b6101c960048036038101906101c49190611e77565b6105e2565b005b6101d36106fa565b6040516101e0919061260d565b60405180910390f35b6101f1610700565b6040516101fe919061244b565b60405180910390f35b610221600480360381019061021c9190611d61565b61078e565b005b61023d60048036038101906102389190611f11565b6107ee565b60405161024a919061244b565b60405180910390f35b61026d60048036038101906102689190611d61565b610881565b005b61028960048036038101906102849190611f5a565b6108a1565b6040516102969190612393565b60405180910390f35b6102b960048036038101906102b49190611cf4565b610953565b6040516102c6919061260d565b60405180910390f35b6102d7610a0b565b6040516102e49190612430565b60405180910390f35b6102f5610a2f565b6040516103029190612415565b60405180910390f35b610313610a53565b604051610320919061244b565b60405180910390f35b610343600480360381019061033e9190611e37565b610ae5565b005b61035f600480360381019061035a9190611db4565b610afb565b005b610369610b5d565b005b61038560048036038101906103809190611f5a565b610b80565b604051610392919061244b565b60405180910390f35b6103a3610dd8565b6040516103b0919061244b565b60405180910390f35b6103d360048036038101906103ce9190611d21565b610e66565b6040516103e091906123fa565b60405180910390f35b60007f80ac58cd000000000000000000000000000000000000000000000000000000007bffffffffffffffffffffffffffffffffffffffffffffffffffffffff1916827bffffffffffffffffffffffffffffffffffffffffffffffffffffffff191614806104b457507f5b5e139f000000000000000000000000000000000000000000000000000000007bffffffffffffffffffffffffffffffffffffffffffffffffffffffff1916827bffffffffffffffffffffffffffffffffffffffffffffffffffffffff1916145b806104c457506104c382611073565b5b9050919050565b6060600080546104da90612913565b80601f016020809104026020016040519081016040528092919081815260200182805461050690612913565b80156105535780601f1061052857610100808354040283529160200191610553565b820191906000526020600020905b81548152906001019060200180831161053657829003601f168201915b5050505050905090565b6000610568826110dd565b6105a7576040517f08c379a000000000000000000000000000000000000000000000000000000000815260040161059e906125ad565b60405180910390fd5b6004600083815260200190815260200160002060009054906101000a900473ffffffffffffffffffffffffffffffffffffffff169050919050565b60006105ed826108a1565b90508073ffffffffffffffffffffffffffffffffffffffff168373ffffffffffffffffffffffffffffffffffffffff16141561065e576040517f08c379a0000000000000000000000000000000000000000000000000000000008152600401610655906125cd565b60405180910390fd5b8073ffffffffffffffffffffffffffffffffffffffff1661067d611149565b73ffffffffffffffffffffffffffffffffffffffff1614806106ac57506106ab816106a6611149565b610e66565b5b6106eb576040517f08c379a00000000000000000000000000000000000000000000000000000000081526004016106e29061252d565b60405180910390fd5b6106f58383611151565b505050565b60065481565b6008805461070d90612913565b80601f016020809104026020016040519081016040528092919081815260200182805461073990612913565b80156107865780601f1061075b57610100808354040283529160200191610786565b820191906000526020600020905b81548152906001019060200180831161076957829003601f168201915b505050505081565b61079f610799611149565b8261120a565b6107de576040517f08c379a00000000000000000000000000000000000000000000000000000000081526004016107d5906125ed565b60405180910390fd5b6107e98383836112e8565b505050565b606060006040518060400160405280601a81526020017f646174613a696d6167652f7376672b786d6c3b6261736536342c00000000000081525090506000610854846040516020016108409190612320565b604051602081830303815290604052610efa565b90508181604051602001610869929190612337565b60405160208183030381529060405292505050919050565b61089c83838360405180602001604052806000815250610afb565b505050565b6000806002600084815260200190815260200160002060009054906101000a900473ffffffffffffffffffffffffffffffffffffffff169050600073ffffffffffffffffffffffffffffffffffffffff168173ffffffffffffffffffffffffffffffffffffffff16141561094a576040517f08c379a00000000000000000000000000000000000000000000000000000000081526004016109419061256d565b60405180910390fd5b80915050919050565b60008073ffffffffffffffffffffffffffffffffffffffff168273ffffffffffffffffffffffffffffffffffffffff1614156109c4576040517f08c379a00000000000000000000000000000000000000000000000000000000081526004016109bb9061254d565b60405180910390fd5b600360008373ffffffffffffffffffffffffffffffffffffffff1673ffffffffffffffffffffffffffffffffffffffff168152602001908152602001600020549050919050565b7f000000000000000000000000000000000000000000000000000000000000000081565b7f000000000000000000000000000000000000000000000000000000000000000081565b606060018054610a6290612913565b80601f0160208091040260200160405190810160405280929190818152602001828054610a8e90612913565b8015610adb5780601f10610ab057610100808354040283529160200191610adb565b820191906000526020600020905b815481529060010190602001808311610abe57829003601f168201915b5050505050905090565b610af7610af0611149565b838361154f565b5050565b610b0c610b06611149565b8361120a565b610b4b576040517f08c379a0000000000000000000000000000000000000000000000000000000008152600401610b42906125ed565b60405180910390fd5b610b57848484846116bc565b50505050565b610b6933600654611718565b6001600654610b7891906126f2565b600681905550565b606060007f000000000000000000000000000000000000000000000000000000000000000073ffffffffffffffffffffffffffffffffffffffff1663feaf968c6040518163ffffffff1660e01b815260040160a06040518083038186803b158015610bea57600080fd5b505afa158015610bfe573d6000803e3d6000fd5b505050506040513d601f19601f82011682018060405250810190610c229190611f87565b505050915050600060078054610c3790612913565b80601f0160208091040260200160405190810160405280929190818152602001828054610c6390612913565b8015610cb05780601f10610c8557610100808354040283529160200191610cb0565b820191906000526020600020905b815481529060010190602001808311610c9357829003601f168201915b505050505090507f0000000000000000000000000000000000000000000000000000000000000000821315610d6d5760088054610cec90612913565b80601f0160208091040260200160405190810160405280929190818152602001828054610d1890612913565b8015610d655780601f10610d3a57610100808354040283529160200191610d65565b820191906000526020600020905b815481529060010190602001808311610d4857829003601f168201915b505050505090505b600081604051602001610d80919061235b565b604051602081830303815290604052905060008190506000610da182610efa565b9050610dab611736565b81604051602001610dbd929190612337565b60405160208183030381529060405295505050505050919050565b60078054610de590612913565b80601f0160208091040260200160405190810160405280929190818152602001828054610e1190612913565b8015610e5e5780601f10610e3357610100808354040283529160200191610e5e565b820191906000526020600020905b815481529060010190602001808311610e4157829003601f168201915b505050505081565b6000600560008473ffffffffffffffffffffffffffffffffffffffff1673ffffffffffffffffffffffffffffffffffffffff16815260200190815260200160002060008373ffffffffffffffffffffffffffffffffffffffff1673ffffffffffffffffffffffffffffffffffffffff16815260200190815260200160002060009054906101000a900460ff16905092915050565b6060600082511415610f1d5760405180602001604052806000815250905061106e565b6000604051806060016040528060408152602001612f866040913990506000600360028551610f4c91906126f2565b610f569190612748565b6004610f629190612779565b90506000602082610f7391906126f2565b67ffffffffffffffff811115610f8c57610f8b612a03565b5b6040519080825280601f01601f191660200182016040528015610fbe5781602001600182028036833780820191505090505b509050818152600183018586518101602084015b8183101561102d576003830192508251603f8160121c168501518253600182019150603f81600c1c168501518253600182019150603f8160061c168501518253600182019150603f8116850151825360018201915050610fd2565b600389510660018114611047576002811461105757611062565b613d3d60f01b6002830352611062565b603d60f81b60018303525b50505050508093505050505b919050565b60007f01ffc9a7000000000000000000000000000000000000000000000000000000007bffffffffffffffffffffffffffffffffffffffffffffffffffffffff1916827bffffffffffffffffffffffffffffffffffffffffffffffffffffffff1916149050919050565b60008073ffffffffffffffffffffffffffffffffffffffff166002600084815260200190815260200160002060009054906101000a900473ffffffffffffffffffffffffffffffffffffffff1673ffffffffffffffffffffffffffffffffffffffff1614159050919050565b600033905090565b816004600083815260200190815260200160002060006101000a81548173ffffffffffffffffffffffffffffffffffffffff021916908373ffffffffffffffffffffffffffffffffffffffff160217905550808273ffffffffffffffffffffffffffffffffffffffff166111c4836108a1565b73ffffffffffffffffffffffffffffffffffffffff167f8c5be1e5ebec7d5bd14f71427d1e84f3dd0314c0f7b2291e5b200ac8c7c3b92560405160405180910390a45050565b6000611215826110dd565b611254576040517f08c379a000000000000000000000000000000000000000000000000000000000815260040161124b9061250d565b60405180910390fd5b600061125f836108a1565b90508073ffffffffffffffffffffffffffffffffffffffff168473ffffffffffffffffffffffffffffffffffffffff1614806112a157506112a08185610e66565b5b806112df57508373ffffffffffffffffffffffffffffffffffffffff166112c78461055d565b73ffffffffffffffffffffffffffffffffffffffff16145b91505092915050565b8273ffffffffffffffffffffffffffffffffffffffff16611308826108a1565b73ffffffffffffffffffffffffffffffffffffffff161461135e576040517f08c379a00000000000000000000000000000000000000000000000000000000081526004016113559061248d565b60405180910390fd5b600073ffffffffffffffffffffffffffffffffffffffff168273ffffffffffffffffffffffffffffffffffffffff1614156113ce576040517f08c379a00000000000000000000000000000000000000000000000000000000081526004016113c5906124cd565b60405180910390fd5b6113d9838383611773565b6113e4600082611151565b6001600360008573ffffffffffffffffffffffffffffffffffffffff1673ffffffffffffffffffffffffffffffffffffffff168152602001908152602001600020600082825461143491906127d3565b925050819055506001600360008473ffffffffffffffffffffffffffffffffffffffff1673ffffffffffffffffffffffffffffffffffffffff168152602001908152602001600020600082825461148b91906126f2565b92505081905550816002600083815260200190815260200160002060006101000a81548173ffffffffffffffffffffffffffffffffffffffff021916908373ffffffffffffffffffffffffffffffffffffffff160217905550808273ffffffffffffffffffffffffffffffffffffffff168473ffffffffffffffffffffffffffffffffffffffff167fddf252ad1be2c89b69c2b068fc378daa952ba7f163c4a11628f55a4df523b3ef60405160405180910390a461154a838383611778565b505050565b8173ffffffffffffffffffffffffffffffffffffffff168373ffffffffffffffffffffffffffffffffffffffff1614156115be576040517f08c379a00000000000000000000000000000000000000000000000000000000081526004016115b5906124ed565b60405180910390fd5b80600560008573ffffffffffffffffffffffffffffffffffffffff1673ffffffffffffffffffffffffffffffffffffffff16815260200190815260200160002060008473ffffffffffffffffffffffffffffffffffffffff1673ffffffffffffffffffffffffffffffffffffffff16815260200190815260200160002060006101000a81548160ff0219169083151502179055508173ffffffffffffffffffffffffffffffffffffffff168373ffffffffffffffffffffffffffffffffffffffff167f17307eab39ab6107e8899845ad3d59bd9653f200f220920489ca2b5937696c31836040516116af91906123fa565b60405180910390a3505050565b6116c78484846112e8565b6116d38484848461177d565b611712576040517f08c379a00000000000000000000000000000000000000000000000000000000081526004016117099061246d565b60405180910390fd5b50505050565b611732828260405180602001604052806000815250611914565b5050565b60606040518060400160405280601d81526020017f646174613a6170706c69636174696f6e2f6a736f6e3b6261736536342c000000815250905090565b505050565b505050565b600061179e8473ffffffffffffffffffffffffffffffffffffffff1661196f565b15611907578373ffffffffffffffffffffffffffffffffffffffff1663150b7a026117c7611149565b8786866040518563ffffffff1660e01b81526004016117e994939291906123ae565b602060405180830381600087803b15801561180357600080fd5b505af192505050801561183457506040513d601f19601f820116820180604052508101906118319190611ee4565b60015b6118b7573d8060008114611864576040519150601f19603f3d011682016040523d82523d6000602084013e611869565b606091505b506000815114156118af576040517f08c379a00000000000000000000000000000000000000000000000000000000081526004016118a69061246d565b60405180910390fd5b805181602001fd5b63150b7a0260e01b7bffffffffffffffffffffffffffffffffffffffffffffffffffffffff1916817bffffffffffffffffffffffffffffffffffffffffffffffffffffffff19161491505061190c565b600190505b949350505050565b61191e8383611992565b61192b600084848461177d565b61196a576040517f08c379a00000000000000000000000000000000000000000000000000000000081526004016119619061246d565b60405180910390fd5b505050565b6000808273ffffffffffffffffffffffffffffffffffffffff163b119050919050565b600073ffffffffffffffffffffffffffffffffffffffff168273ffffffffffffffffffffffffffffffffffffffff161415611a02576040517f08c379a00000000000000000000000000000000000000000000000000000000081526004016119f99061258d565b60405180910390fd5b611a0b816110dd565b15611a4b576040517f08c379a0000000000000000000000000000000000000000000000000000000008152600401611a42906124ad565b60405180910390fd5b611a5760008383611773565b6001600360008473ffffffffffffffffffffffffffffffffffffffff1673ffffffffffffffffffffffffffffffffffffffff1681526020019081526020016000206000828254611aa791906126f2565b92505081905550816002600083815260200190815260200160002060006101000a81548173ffffffffffffffffffffffffffffffffffffffff021916908373ffffffffffffffffffffffffffffffffffffffff160217905550808273ffffffffffffffffffffffffffffffffffffffff16600073ffffffffffffffffffffffffffffffffffffffff167fddf252ad1be2c89b69c2b068fc378daa952ba7f163c4a11628f55a4df523b3ef60405160405180910390a4611b6860008383611778565b5050565b6000611b7f611b7a8461264d565b612628565b905082815260208101848484011115611b9b57611b9a612a37565b5b611ba68482856128d1565b509392505050565b6000611bc1611bbc8461267e565b612628565b905082815260208101848484011115611bdd57611bdc612a37565b5b611be88482856128d1565b509392505050565b600081359050611bff81612efb565b92915050565b600081359050611c1481612f12565b92915050565b600081359050611c2981612f29565b92915050565b600081519050611c3e81612f29565b92915050565b600082601f830112611c5957611c58612a32565b5b8135611c69848260208601611b6c565b91505092915050565b600081519050611c8181612f40565b92915050565b600082601f830112611c9c57611c9b612a32565b5b8135611cac848260208601611bae565b91505092915050565b600081359050611cc481612f57565b92915050565b600081519050611cd981612f57565b92915050565b600081519050611cee81612f6e565b92915050565b600060208284031215611d0a57611d09612a41565b5b6000611d1884828501611bf0565b91505092915050565b60008060408385031215611d3857611d37612a41565b5b6000611d4685828601611bf0565b9250506020611d5785828601611bf0565b9150509250929050565b600080600060608486031215611d7a57611d79612a41565b5b6000611d8886828701611bf0565b9350506020611d9986828701611bf0565b9250506040611daa86828701611cb5565b9150509250925092565b60008060008060808587031215611dce57611dcd612a41565b5b6000611ddc87828801611bf0565b9450506020611ded87828801611bf0565b9350506040611dfe87828801611cb5565b925050606085013567ffffffffffffffff811115611e1f57611e1e612a3c565b5b611e2b87828801611c44565b91505092959194509250565b60008060408385031215611e4e57611e4d612a41565b5b6000611e5c85828601611bf0565b9250506020611e6d85828601611c05565b9150509250929050565b60008060408385031215611e8e57611e8d612a41565b5b6000611e9c85828601611bf0565b9250506020611ead85828601611cb5565b9150509250929050565b600060208284031215611ecd57611ecc612a41565b5b6000611edb84828501611c1a565b91505092915050565b600060208284031215611efa57611ef9612a41565b5b6000611f0884828501611c2f565b91505092915050565b600060208284031215611f2757611f26612a41565b5b600082013567ffffffffffffffff811115611f4557611f44612a3c565b5b611f5184828501611c87565b91505092915050565b600060208284031215611f7057611f6f612a41565b5b6000611f7e84828501611cb5565b91505092915050565b600080600080600060a08688031215611fa357611fa2612a41565b5b6000611fb188828901611cdf565b9550506020611fc288828901611c72565b9450506040611fd388828901611cca565b9350506060611fe488828901611cca565b9250506080611ff588828901611cdf565b9150509295509295909350565b61200b81612807565b82525050565b61201a81612819565b82525050565b600061202b826126af565b61203581856126c5565b93506120458185602086016128e0565b61204e81612a46565b840191505092915050565b6120628161289b565b82525050565b61207181612851565b82525050565b6000612082826126ba565b61208c81856126d6565b935061209c8185602086016128e0565b6120a581612a46565b840191505092915050565b60006120bb826126ba565b6120c581856126e7565b93506120d58185602086016128e0565b80840191505092915050565b60006120ee6032836126d6565b91506120f982612a57565b604082019050919050565b60006121116025836126d6565b915061211c82612aa6565b604082019050919050565b6000612134601c836126d6565b915061213f82612af5565b602082019050919050565b60006121576024836126d6565b915061216282612b1e565b604082019050919050565b600061217a6019836126d6565b915061218582612b6d565b602082019050919050565b600061219d602c836126d6565b91506121a882612b96565b604082019050919050565b60006121c06038836126d6565b91506121cb82612be5565b604082019050919050565b60006121e3602a836126d6565b91506121ee82612c34565b604082019050919050565b60006122066029836126d6565b915061221182612c83565b604082019050919050565b60006122296002836126e7565b915061223482612cd2565b600282019050919050565b600061224c6020836126d6565b915061225782612cfb565b602082019050919050565b600061226f602c836126d6565b915061227a82612d24565b604082019050919050565b60006122926021836126d6565b915061229d82612d73565b604082019050919050565b60006122b56031836126d6565b91506122c082612dc2565b604082019050919050565b60006122d86058836126e7565b91506122e382612e11565b605882019050919050565b60006122fb6043836126e7565b915061230682612e86565b604382019050919050565b61231a8161287b565b82525050565b600061232c82846120b0565b915081905092915050565b600061234382856120b0565b915061234f82846120b0565b91508190509392505050565b6000612366826122cb565b9150612371826122ee565b915061237d82846120b0565b91506123888261221c565b915081905092915050565b60006020820190506123a86000830184612002565b92915050565b60006080820190506123c36000830187612002565b6123d06020830186612002565b6123dd6040830185612311565b81810360608301526123ef8184612020565b905095945050505050565b600060208201905061240f6000830184612011565b92915050565b600060208201905061242a6000830184612059565b92915050565b60006020820190506124456000830184612068565b92915050565b600060208201905081810360008301526124658184612077565b905092915050565b60006020820190508181036000830152612486816120e1565b9050919050565b600060208201905081810360008301526124a681612104565b9050919050565b600060208201905081810360008301526124c681612127565b9050919050565b600060208201905081810360008301526124e68161214a565b9050919050565b600060208201905081810360008301526125068161216d565b9050919050565b6000602082019050818103600083015261252681612190565b9050919050565b60006020820190508181036000830152612546816121b3565b9050919050565b60006020820190508181036000830152612566816121d6565b9050919050565b60006020820190508181036000830152612586816121f9565b9050919050565b600060208201905081810360008301526125a68161223f565b9050919050565b600060208201905081810360008301526125c681612262565b9050919050565b600060208201905081810360008301526125e681612285565b9050919050565b60006020820190508181036000830152612606816122a8565b9050919050565b60006020820190506126226000830184612311565b92915050565b6000612632612643565b905061263e8282612945565b919050565b6000604051905090565b600067ffffffffffffffff82111561266857612667612a03565b5b61267182612a46565b9050602081019050919050565b600067ffffffffffffffff82111561269957612698612a03565b5b6126a282612a46565b9050602081019050919050565b600081519050919050565b600081519050919050565b600082825260208201905092915050565b600082825260208201905092915050565b600081905092915050565b60006126fd8261287b565b91506127088361287b565b9250827fffffffffffffffffffffffffffffffffffffffffffffffffffffffffffffffff0382111561273d5761273c612976565b5b828201905092915050565b60006127538261287b565b915061275e8361287b565b92508261276e5761276d6129a5565b5b828204905092915050565b60006127848261287b565b915061278f8361287b565b9250817fffffffffffffffffffffffffffffffffffffffffffffffffffffffffffffffff04831182151516156127c8576127c7612976565b5b828202905092915050565b60006127de8261287b565b91506127e98361287b565b9250828210156127fc576127fb612976565b5b828203905092915050565b60006128128261285b565b9050919050565b60008115159050919050565b60007fffffffff0000000000000000000000000000000000000000000000000000000082169050919050565b6000819050919050565b600073ffffffffffffffffffffffffffffffffffffffff82169050919050565b6000819050919050565b600069ffffffffffffffffffff82169050919050565b60006128a6826128ad565b9050919050565b60006128b8826128bf565b9050919050565b60006128ca8261285b565b9050919050565b82818337600083830152505050565b60005b838110156128fe5780820151818401526020810190506128e3565b8381111561290d576000848401525b50505050565b6000600282049050600182168061292b57607f821691505b6020821081141561293f5761293e6129d4565b5b50919050565b61294e82612a46565b810181811067ffffffffffffffff8211171561296d5761296c612a03565b5b80604052505050565b7f4e487b7100000000000000000000000000000000000000000000000000000000600052601160045260246000fd5b7f4e487b7100000000000000000000000000000000000000000000000000000000600052601260045260246000fd5b7f4e487b7100000000000000000000000000000000000000000000000000000000600052602260045260246000fd5b7f4e487b7100000000000000000000000000000000000000000000000000000000600052604160045260246000fd5b600080fd5b600080fd5b600080fd5b600080fd5b6000601f19601f8301169050919050565b7f4552433732313a207472616e7366657220746f206e6f6e20455243373231526560008201527f63656976657220696d706c656d656e7465720000000000000000000000000000602082015250565b7f4552433732313a207472616e736665722066726f6d20696e636f72726563742060008201527f6f776e6572000000000000000000000000000000000000000000000000000000602082015250565b7f4552433732313a20746f6b656e20616c7265616479206d696e74656400000000600082015250565b7f4552433732313a207472616e7366657220746f20746865207a65726f2061646460008201527f7265737300000000000000000000000000000000000000000000000000000000602082015250565b7f4552433732313a20617070726f766520746f2063616c6c657200000000000000600082015250565b7f4552433732313a206f70657261746f7220717565727920666f72206e6f6e657860008201527f697374656e7420746f6b656e0000000000000000000000000000000000000000602082015250565b7f4552433732313a20617070726f76652063616c6c6572206973206e6f74206f7760008201527f6e6572206e6f7220617070726f76656420666f7220616c6c0000000000000000602082015250565b7f4552433732313a2062616c616e636520717565727920666f7220746865207a6560008201527f726f206164647265737300000000000000000000000000000000000000000000602082015250565b7f4552433732313a206f776e657220717565727920666f72206e6f6e657869737460008201527f656e7420746f6b656e0000000000000000000000000000000000000000000000602082015250565b7f227d000000000000000000000000000000000000000000000000000000000000600082015250565b7f4552433732313a206d696e7420746f20746865207a65726f2061646472657373600082015250565b7f4552433732313a20617070726f76656420717565727920666f72206e6f6e657860008201527f697374656e7420746f6b656e0000000000000000000000000000000000000000602082015250565b7f4552433732313a20617070726f76616c20746f2063757272656e74206f776e6560008201527f7200000000000000000000000000000000000000000000000000000000000000602082015250565b7f4552433732313a207472616e736665722063616c6c6572206973206e6f74206f60008201527f776e6572206e6f7220617070726f766564000000000000000000000000000000602082015250565b7f7b226e616d65223a2244796e616d696320535647222c2022646573637269707460008201527f696f6e223a22416e204e46542074686174206368616e6765732062617365642060208201527f6f6e2074686520436861696e6c696e6b2046656564222c200000000000000000604082015250565b7f2261747472696275746573223a205b7b2274726169745f74797065223a20226360008201527f6f6f6c6e657373222c202276616c7565223a203130307d5d2c2022696d61676560208201527f223a220000000000000000000000000000000000000000000000000000000000604082015250565b612f0481612807565b8114612f0f57600080fd5b50565b612f1b81612819565b8114612f2657600080fd5b50565b612f3281612825565b8114612f3d57600080fd5b50565b612f4981612851565b8114612f5457600080fd5b50565b612f608161287b565b8114612f6b57600080fd5b50565b612f7781612885565b8114612f8257600080fd5b5056fe4142434445464748494a4b4c4d4e4f505152535455565758595a6162636465666768696a6b6c6d6e6f707172737475767778797a303132333435363738392b2fa26469706673582212203134ca190a5262851b60d0a672dcb4f3886080bba2f71d09b01a15a325cd187764736f6c634300080700334142434445464748494a4b4c4d4e4f505152535455565758595a6162636465666768696a6b6c6d6e6f707172737475767778797a303132333435363738392b2f",
  "devdoc": {
    "kind": "dev",
    "methods": {
      "approve(address,uint256)": {
        "details": "See {IERC721-approve}."
      },
      "balanceOf(address)": {
        "details": "See {IERC721-balanceOf}."
      },
      "getApproved(uint256)": {
        "details": "See {IERC721-getApproved}."
      },
      "isApprovedForAll(address,address)": {
        "details": "See {IERC721-isApprovedForAll}."
      },
      "name()": {
        "details": "See {IERC721Metadata-name}."
      },
      "ownerOf(uint256)": {
        "details": "See {IERC721-ownerOf}."
      },
      "safeTransferFrom(address,address,uint256)": {
        "details": "See {IERC721-safeTransferFrom}."
      },
      "safeTransferFrom(address,address,uint256,bytes)": {
        "details": "See {IERC721-safeTransferFrom}."
      },
      "setApprovalForAll(address,bool)": {
        "details": "See {IERC721-setApprovalForAll}."
      },
      "supportsInterface(bytes4)": {
        "details": "See {IERC165-supportsInterface}."
      },
      "symbol()": {
        "details": "See {IERC721Metadata-symbol}."
      },
      "transferFrom(address,address,uint256)": {
        "details": "See {IERC721-transferFrom}."
      }
    },
    "version": 1
  },
  "userdoc": {
    "kind": "user",
    "methods": {},
    "version": 1
  },
  "storageLayout": {
    "storage": [
      {
        "astId": 71,
        "contract": "contracts/DynamicSvgtNft.sol:DynamicSvgNft",
        "label": "_name",
        "offset": 0,
        "slot": "0",
        "type": "t_string_storage"
      },
      {
        "astId": 73,
        "contract": "contracts/DynamicSvgtNft.sol:DynamicSvgNft",
        "label": "_symbol",
        "offset": 0,
        "slot": "1",
        "type": "t_string_storage"
      },
      {
        "astId": 77,
        "contract": "contracts/DynamicSvgtNft.sol:DynamicSvgNft",
        "label": "_owners",
        "offset": 0,
        "slot": "2",
        "type": "t_mapping(t_uint256,t_address)"
      },
      {
        "astId": 81,
        "contract": "contracts/DynamicSvgtNft.sol:DynamicSvgNft",
        "label": "_balances",
        "offset": 0,
        "slot": "3",
        "type": "t_mapping(t_address,t_uint256)"
      },
      {
        "astId": 85,
        "contract": "contracts/DynamicSvgtNft.sol:DynamicSvgNft",
        "label": "_tokenApprovals",
        "offset": 0,
        "slot": "4",
        "type": "t_mapping(t_uint256,t_address)"
      },
      {
        "astId": 91,
        "contract": "contracts/DynamicSvgtNft.sol:DynamicSvgNft",
        "label": "_operatorApprovals",
        "offset": 0,
        "slot": "5",
        "type": "t_mapping(t_address,t_mapping(t_address,t_bool))"
      },
      {
        "astId": 1752,
        "contract": "contracts/DynamicSvgtNft.sol:DynamicSvgNft",
        "label": "s_tokenCounter",
        "offset": 0,
        "slot": "6",
        "type": "t_uint256"
      },
      {
        "astId": 1754,
        "contract": "contracts/DynamicSvgtNft.sol:DynamicSvgNft",
        "label": "s_lowImageURI",
        "offset": 0,
        "slot": "7",
        "type": "t_string_storage"
      },
      {
        "astId": 1756,
        "contract": "contracts/DynamicSvgtNft.sol:DynamicSvgNft",
        "label": "s_highImageURI",
        "offset": 0,
        "slot": "8",
        "type": "t_string_storage"
      }
    ],
    "types": {
      "t_address": {
        "encoding": "inplace",
        "label": "address",
        "numberOfBytes": "20"
      },
      "t_bool": {
        "encoding": "inplace",
        "label": "bool",
        "numberOfBytes": "1"
      },
      "t_mapping(t_address,t_bool)": {
        "encoding": "mapping",
        "key": "t_address",
        "label": "mapping(address => bool)",
        "numberOfBytes": "32",
        "value": "t_bool"
      },
      "t_mapping(t_address,t_mapping(t_address,t_bool))": {
        "encoding": "mapping",
        "key": "t_address",
        "label": "mapping(address => mapping(address => bool))",
        "numberOfBytes": "32",
        "value": "t_mapping(t_address,t_bool)"
      },
      "t_mapping(t_address,t_uint256)": {
        "encoding": "mapping",
        "key": "t_address",
        "label": "mapping(address => uint256)",
        "numberOfBytes": "32",
        "value": "t_uint256"
      },
      "t_mapping(t_uint256,t_address)": {
        "encoding": "mapping",
        "key": "t_uint256",
        "label": "mapping(uint256 => address)",
        "numberOfBytes": "32",
        "value": "t_address"
      },
      "t_string_storage": {
        "encoding": "bytes",
        "label": "string",
        "numberOfBytes": "32"
      },
      "t_uint256": {
        "encoding": "inplace",
        "label": "uint256",
        "numberOfBytes": "32"
      }
    }
  }
}