{
  "_format": "hh-sol-artifact-1",
  "contractName": "DynamicSvgNft",
  "sourceName": "contracts/DynamicSvgtNft.sol",
  "abi": [
    {
      "inputs": [],
      "stateMutability": "nonpayable",
      "type": "constructor"
    },
    {
      "anonymous": false,
      "inputs": [
        {
          "indexed": true,
          "internalType": "address",
          "name": "owner",
          "type": "address"
        },
        {
          "indexed": true,
          "internalType": "address",
          "name": "approved",
          "type": "address"
        },
        {
          "indexed": true,
          "internalType": "uint256",
          "name": "tokenId",
          "type": "uint256"
        }
      ],
      "name": "Approval",
      "type": "event"
    },
    {
      "anonymous": false,
      "inputs": [
        {
          "indexed": true,
          "internalType": "address",
          "name": "owner",
          "type": "address"
        },
        {
          "indexed": true,
          "internalType": "address",
          "name": "operator",
          "type": "address"
        },
        {
          "indexed": false,
          "internalType": "bool",
          "name": "approved",
          "type": "bool"
        }
      ],
      "name": "ApprovalForAll",
      "type": "event"
    },
    {
      "anonymous": false,
      "inputs": [
        {
          "indexed": true,
          "internalType": "address",
          "name": "from",
          "type": "address"
        },
        {
          "indexed": true,
          "internalType": "address",
          "name": "to",
          "type": "address"
        },
        {
          "indexed": true,
          "internalType": "uint256",
          "name": "tokenId",
          "type": "uint256"
        }
      ],
      "name": "Transfer",
      "type": "event"
    },
    {
      "inputs": [
        {
          "internalType": "address",
          "name": "to",
          "type": "address"
        },
        {
          "internalType": "uint256",
          "name": "tokenId",
          "type": "uint256"
        }
      ],
      "name": "approve",
      "outputs": [],
      "stateMutability": "nonpayable",
      "type": "function"
    },
    {
      "inputs": [
        {
          "internalType": "address",
          "name": "owner",
          "type": "address"
        }
      ],
      "name": "balanceOf",
      "outputs": [
        {
          "internalType": "uint256",
          "name": "",
          "type": "uint256"
        }
      ],
      "stateMutability": "view",
      "type": "function"
    },
    {
      "inputs": [
        {
          "internalType": "uint256",
          "name": "tokenId",
          "type": "uint256"
        }
      ],
      "name": "getApproved",
      "outputs": [
        {
          "internalType": "address",
          "name": "",
          "type": "address"
        }
      ],
      "stateMutability": "view",
      "type": "function"
    },
    {
      "inputs": [
        {
          "internalType": "address",
          "name": "owner",
          "type": "address"
        },
        {
          "internalType": "address",
          "name": "operator",
          "type": "address"
        }
      ],
      "name": "isApprovedForAll",
      "outputs": [
        {
          "internalType": "bool",
          "name": "",
          "type": "bool"
        }
      ],
      "stateMutability": "view",
      "type": "function"
    },
    {
      "inputs": [],
      "name": "mintNft",
      "outputs": [],
      "stateMutability": "nonpayable",
      "type": "function"
    },
    {
      "inputs": [],
      "name": "name",
      "outputs": [
        {
          "internalType": "string",
          "name": "",
          "type": "string"
        }
      ],
      "stateMutability": "view",
      "type": "function"
    },
    {
      "inputs": [
        {
          "internalType": "uint256",
          "name": "tokenId",
          "type": "uint256"
        }
      ],
      "name": "ownerOf",
      "outputs": [
        {
          "internalType": "address",
          "name": "",
          "type": "address"
        }
      ],
      "stateMutability": "view",
      "type": "function"
    },
    {
      "inputs": [],
      "name": "s_tokenCounter",
      "outputs": [
        {
          "internalType": "uint256",
          "name": "",
          "type": "uint256"
        }
      ],
      "stateMutability": "view",
      "type": "function"
    },
    {
      "inputs": [
        {
          "internalType": "address",
          "name": "from",
          "type": "address"
        },
        {
          "internalType": "address",
          "name": "to",
          "type": "address"
        },
        {
          "internalType": "uint256",
          "name": "tokenId",
          "type": "uint256"
        }
      ],
      "name": "safeTransferFrom",
      "outputs": [],
      "stateMutability": "nonpayable",
      "type": "function"
    },
    {
      "inputs": [
        {
          "internalType": "address",
          "name": "from",
          "type": "address"
        },
        {
          "internalType": "address",
          "name": "to",
          "type": "address"
        },
        {
          "internalType": "uint256",
          "name": "tokenId",
          "type": "uint256"
        },
        {
          "internalType": "bytes",
          "name": "_data",
          "type": "bytes"
        }
      ],
      "name": "safeTransferFrom",
      "outputs": [],
      "stateMutability": "nonpayable",
      "type": "function"
    },
    {
      "inputs": [
        {
          "internalType": "address",
          "name": "operator",
          "type": "address"
        },
        {
          "internalType": "bool",
          "name": "approved",
          "type": "bool"
        }
      ],
      "name": "setApprovalForAll",
      "outputs": [],
      "stateMutability": "nonpayable",
      "type": "function"
    },
    {
      "inputs": [
        {
          "internalType": "bytes4",
          "name": "interfaceId",
          "type": "bytes4"
        }
      ],
      "name": "supportsInterface",
      "outputs": [
        {
          "internalType": "bool",
          "name": "",
          "type": "bool"
        }
      ],
      "stateMutability": "view",
      "type": "function"
    },
    {
      "inputs": [],
      "name": "symbol",
      "outputs": [
        {
          "internalType": "string",
          "name": "",
          "type": "string"
        }
      ],
      "stateMutability": "view",
      "type": "function"
    },
    {
      "inputs": [
        {
          "internalType": "uint256",
          "name": "tokenId",
          "type": "uint256"
        }
      ],
      "name": "tokenURI",
      "outputs": [
        {
          "internalType": "string",
          "name": "",
          "type": "string"
        }
      ],
      "stateMutability": "view",
      "type": "function"
    },
    {
      "inputs": [
        {
          "internalType": "address",
          "name": "from",
          "type": "address"
        },
        {
          "internalType": "address",
          "name": "to",
          "type": "address"
        },
        {
          "internalType": "uint256",
          "name": "tokenId",
          "type": "uint256"
        }
      ],
      "name": "transferFrom",
      "outputs": [],
      "stateMutability": "nonpayable",
      "type": "function"
    }
  ],
  "bytecode": "0x60806040523480156200001157600080fd5b506040518060400160405280600f81526020017f44796e616d696320535647204e465400000000000000000000000000000000008152506040518060400160405280600381526020017f44534e0000000000000000000000000000000000000000000000000000000000815250816000908051906020019062000096929190620000b8565b508060019080519060200190620000af929190620000b8565b505050620001cd565b828054620000c69062000168565b90600052602060002090601f016020900481019282620000ea576000855562000136565b82601f106200010557805160ff191683800117855562000136565b8280016001018555821562000136579182015b828111156200013557825182559160200191906001019062000118565b5b50905062000145919062000149565b5090565b5b80821115620001645760008160009055506001016200014a565b5090565b600060028204905060018216806200018157607f821691505b602082108114156200019857620001976200019e565b5b50919050565b7f4e487b7100000000000000000000000000000000000000000000000000000000600052602260045260246000fd5b61237d80620001dd6000396000f3fe608060405234801561001057600080fd5b50600436106100f55760003560e01c80636352211e11610097578063b88d4fde11610066578063b88d4fde14610284578063c2229fea146102a0578063c87b56dd146102aa578063e985e9c5146102da576100f5565b80636352211e146101ea57806370a082311461021a57806395d89b411461024a578063a22cb46514610268576100f5565b8063095ea7b3116100d3578063095ea7b3146101785780630b21a83b1461019457806323b872dd146101b257806342842e0e146101ce576100f5565b806301ffc9a7146100fa57806306fdde031461012a578063081812fc14610148575b600080fd5b610114600480360381019061010f919061172b565b61030a565b6040516101219190611a7f565b60405180910390f35b6101326103ec565b60405161013f9190611a9a565b60405180910390f35b610162600480360381019061015d9190611785565b61047e565b60405161016f9190611a18565b60405180910390f35b610192600480360381019061018d91906116eb565b610503565b005b61019c61061b565b6040516101a99190611c5c565b60405180910390f35b6101cc60048036038101906101c791906115d5565b610621565b005b6101e860048036038101906101e391906115d5565b610681565b005b61020460048036038101906101ff9190611785565b6106a1565b6040516102119190611a18565b60405180910390f35b610234600480360381019061022f9190611568565b610753565b6040516102419190611c5c565b60405180910390f35b61025261080b565b60405161025f9190611a9a565b60405180910390f35b610282600480360381019061027d91906116ab565b61089d565b005b61029e60048036038101906102999190611628565b6108b3565b005b6102a8610915565b005b6102c460048036038101906102bf9190611785565b610938565b6040516102d19190611a9a565b60405180910390f35b6102f460048036038101906102ef9190611595565b61093f565b6040516103019190611a7f565b60405180910390f35b60007f80ac58cd000000000000000000000000000000000000000000000000000000007bffffffffffffffffffffffffffffffffffffffffffffffffffffffff1916827bffffffffffffffffffffffffffffffffffffffffffffffffffffffff191614806103d557507f5b5e139f000000000000000000000000000000000000000000000000000000007bffffffffffffffffffffffffffffffffffffffffffffffffffffffff1916827bffffffffffffffffffffffffffffffffffffffffffffffffffffffff1916145b806103e557506103e4826109d3565b5b9050919050565b6060600080546103fb90611e45565b80601f016020809104026020016040519081016040528092919081815260200182805461042790611e45565b80156104745780601f1061044957610100808354040283529160200191610474565b820191906000526020600020905b81548152906001019060200180831161045757829003601f168201915b5050505050905090565b600061048982610a3d565b6104c8576040517f08c379a00000000000000000000000000000000000000000000000000000000081526004016104bf90611bfc565b60405180910390fd5b6004600083815260200190815260200160002060009054906101000a900473ffffffffffffffffffffffffffffffffffffffff169050919050565b600061050e826106a1565b90508073ffffffffffffffffffffffffffffffffffffffff168373ffffffffffffffffffffffffffffffffffffffff16141561057f576040517f08c379a000000000000000000000000000000000000000000000000000000000815260040161057690611c1c565b60405180910390fd5b8073ffffffffffffffffffffffffffffffffffffffff1661059e610aa9565b73ffffffffffffffffffffffffffffffffffffffff1614806105cd57506105cc816105c7610aa9565b61093f565b5b61060c576040517f08c379a000000000000000000000000000000000000000000000000000000000815260040161060390611b7c565b60405180910390fd5b6106168383610ab1565b505050565b60065481565b61063261062c610aa9565b82610b6a565b610671576040517f08c379a000000000000000000000000000000000000000000000000000000000815260040161066890611c3c565b60405180910390fd5b61067c838383610c48565b505050565b61069c838383604051806020016040528060008152506108b3565b505050565b6000806002600084815260200190815260200160002060009054906101000a900473ffffffffffffffffffffffffffffffffffffffff169050600073ffffffffffffffffffffffffffffffffffffffff168173ffffffffffffffffffffffffffffffffffffffff16141561074a576040517f08c379a000000000000000000000000000000000000000000000000000000000815260040161074190611bbc565b60405180910390fd5b80915050919050565b60008073ffffffffffffffffffffffffffffffffffffffff168273ffffffffffffffffffffffffffffffffffffffff1614156107c4576040517f08c379a00000000000000000000000000000000000000000000000000000000081526004016107bb90611b9c565b60405180910390fd5b600360008373ffffffffffffffffffffffffffffffffffffffff1673ffffffffffffffffffffffffffffffffffffffff168152602001908152602001600020549050919050565b60606001805461081a90611e45565b80601f016020809104026020016040519081016040528092919081815260200182805461084690611e45565b80156108935780601f1061086857610100808354040283529160200191610893565b820191906000526020600020905b81548152906001019060200180831161087657829003601f168201915b5050505050905090565b6108af6108a8610aa9565b8383610eaf565b5050565b6108c46108be610aa9565b83610b6a565b610903576040517f08c379a00000000000000000000000000000000000000000000000000000000081526004016108fa90611c3c565b60405180910390fd5b61090f8484848461101c565b50505050565b61092133600654611078565b60016006546109309190611d05565b600681905550565b6060919050565b6000600560008473ffffffffffffffffffffffffffffffffffffffff1673ffffffffffffffffffffffffffffffffffffffff16815260200190815260200160002060008373ffffffffffffffffffffffffffffffffffffffff1673ffffffffffffffffffffffffffffffffffffffff16815260200190815260200160002060009054906101000a900460ff16905092915050565b60007f01ffc9a7000000000000000000000000000000000000000000000000000000007bffffffffffffffffffffffffffffffffffffffffffffffffffffffff1916827bffffffffffffffffffffffffffffffffffffffffffffffffffffffff1916149050919050565b60008073ffffffffffffffffffffffffffffffffffffffff166002600084815260200190815260200160002060009054906101000a900473ffffffffffffffffffffffffffffffffffffffff1673ffffffffffffffffffffffffffffffffffffffff1614159050919050565b600033905090565b816004600083815260200190815260200160002060006101000a81548173ffffffffffffffffffffffffffffffffffffffff021916908373ffffffffffffffffffffffffffffffffffffffff160217905550808273ffffffffffffffffffffffffffffffffffffffff16610b24836106a1565b73ffffffffffffffffffffffffffffffffffffffff167f8c5be1e5ebec7d5bd14f71427d1e84f3dd0314c0f7b2291e5b200ac8c7c3b92560405160405180910390a45050565b6000610b7582610a3d565b610bb4576040517f08c379a0000000000000000000000000000000000000000000000000000000008152600401610bab90611b5c565b60405180910390fd5b6000610bbf836106a1565b90508073ffffffffffffffffffffffffffffffffffffffff168473ffffffffffffffffffffffffffffffffffffffff161480610c015750610c00818561093f565b5b80610c3f57508373ffffffffffffffffffffffffffffffffffffffff16610c278461047e565b73ffffffffffffffffffffffffffffffffffffffff16145b91505092915050565b8273ffffffffffffffffffffffffffffffffffffffff16610c68826106a1565b73ffffffffffffffffffffffffffffffffffffffff1614610cbe576040517f08c379a0000000000000000000000000000000000000000000000000000000008152600401610cb590611adc565b60405180910390fd5b600073ffffffffffffffffffffffffffffffffffffffff168273ffffffffffffffffffffffffffffffffffffffff161415610d2e576040517f08c379a0000000000000000000000000000000000000000000000000000000008152600401610d2590611b1c565b60405180910390fd5b610d39838383611096565b610d44600082610ab1565b6001600360008573ffffffffffffffffffffffffffffffffffffffff1673ffffffffffffffffffffffffffffffffffffffff1681526020019081526020016000206000828254610d949190611d5b565b925050819055506001600360008473ffffffffffffffffffffffffffffffffffffffff1673ffffffffffffffffffffffffffffffffffffffff1681526020019081526020016000206000828254610deb9190611d05565b92505081905550816002600083815260200190815260200160002060006101000a81548173ffffffffffffffffffffffffffffffffffffffff021916908373ffffffffffffffffffffffffffffffffffffffff160217905550808273ffffffffffffffffffffffffffffffffffffffff168473ffffffffffffffffffffffffffffffffffffffff167fddf252ad1be2c89b69c2b068fc378daa952ba7f163c4a11628f55a4df523b3ef60405160405180910390a4610eaa83838361109b565b505050565b8173ffffffffffffffffffffffffffffffffffffffff168373ffffffffffffffffffffffffffffffffffffffff161415610f1e576040517f08c379a0000000000000000000000000000000000000000000000000000000008152600401610f1590611b3c565b60405180910390fd5b80600560008573ffffffffffffffffffffffffffffffffffffffff1673ffffffffffffffffffffffffffffffffffffffff16815260200190815260200160002060008473ffffffffffffffffffffffffffffffffffffffff1673ffffffffffffffffffffffffffffffffffffffff16815260200190815260200160002060006101000a81548160ff0219169083151502179055508173ffffffffffffffffffffffffffffffffffffffff168373ffffffffffffffffffffffffffffffffffffffff167f17307eab39ab6107e8899845ad3d59bd9653f200f220920489ca2b5937696c318360405161100f9190611a7f565b60405180910390a3505050565b611027848484610c48565b611033848484846110a0565b611072576040517f08c379a000000000000000000000000000000000000000000000000000000000815260040161106990611abc565b60405180910390fd5b50505050565b611092828260405180602001604052806000815250611237565b5050565b505050565b505050565b60006110c18473ffffffffffffffffffffffffffffffffffffffff16611292565b1561122a578373ffffffffffffffffffffffffffffffffffffffff1663150b7a026110ea610aa9565b8786866040518563ffffffff1660e01b815260040161110c9493929190611a33565b602060405180830381600087803b15801561112657600080fd5b505af192505050801561115757506040513d601f19601f820116820180604052508101906111549190611758565b60015b6111da573d8060008114611187576040519150601f19603f3d011682016040523d82523d6000602084013e61118c565b606091505b506000815114156111d2576040517f08c379a00000000000000000000000000000000000000000000000000000000081526004016111c990611abc565b60405180910390fd5b805181602001fd5b63150b7a0260e01b7bffffffffffffffffffffffffffffffffffffffffffffffffffffffff1916817bffffffffffffffffffffffffffffffffffffffffffffffffffffffff19161491505061122f565b600190505b949350505050565b61124183836112b5565b61124e60008484846110a0565b61128d576040517f08c379a000000000000000000000000000000000000000000000000000000000815260040161128490611abc565b60405180910390fd5b505050565b6000808273ffffffffffffffffffffffffffffffffffffffff163b119050919050565b600073ffffffffffffffffffffffffffffffffffffffff168273ffffffffffffffffffffffffffffffffffffffff161415611325576040517f08c379a000000000000000000000000000000000000000000000000000000000815260040161131c90611bdc565b60405180910390fd5b61132e81610a3d565b1561136e576040517f08c379a000000000000000000000000000000000000000000000000000000000815260040161136590611afc565b60405180910390fd5b61137a60008383611096565b6001600360008473ffffffffffffffffffffffffffffffffffffffff1673ffffffffffffffffffffffffffffffffffffffff16815260200190815260200160002060008282546113ca9190611d05565b92505081905550816002600083815260200190815260200160002060006101000a81548173ffffffffffffffffffffffffffffffffffffffff021916908373ffffffffffffffffffffffffffffffffffffffff160217905550808273ffffffffffffffffffffffffffffffffffffffff16600073ffffffffffffffffffffffffffffffffffffffff167fddf252ad1be2c89b69c2b068fc378daa952ba7f163c4a11628f55a4df523b3ef60405160405180910390a461148b6000838361109b565b5050565b60006114a261149d84611c9c565b611c77565b9050828152602081018484840111156114be576114bd611f3a565b5b6114c9848285611e03565b509392505050565b6000813590506114e0816122eb565b92915050565b6000813590506114f581612302565b92915050565b60008135905061150a81612319565b92915050565b60008151905061151f81612319565b92915050565b600082601f83011261153a57611539611f35565b5b813561154a84826020860161148f565b91505092915050565b60008135905061156281612330565b92915050565b60006020828403121561157e5761157d611f44565b5b600061158c848285016114d1565b91505092915050565b600080604083850312156115ac576115ab611f44565b5b60006115ba858286016114d1565b92505060206115cb858286016114d1565b9150509250929050565b6000806000606084860312156115ee576115ed611f44565b5b60006115fc868287016114d1565b935050602061160d868287016114d1565b925050604061161e86828701611553565b9150509250925092565b6000806000806080858703121561164257611641611f44565b5b6000611650878288016114d1565b9450506020611661878288016114d1565b935050604061167287828801611553565b925050606085013567ffffffffffffffff81111561169357611692611f3f565b5b61169f87828801611525565b91505092959194509250565b600080604083850312156116c2576116c1611f44565b5b60006116d0858286016114d1565b92505060206116e1858286016114e6565b9150509250929050565b6000806040838503121561170257611701611f44565b5b6000611710858286016114d1565b925050602061172185828601611553565b9150509250929050565b60006020828403121561174157611740611f44565b5b600061174f848285016114fb565b91505092915050565b60006020828403121561176e5761176d611f44565b5b600061177c84828501611510565b91505092915050565b60006020828403121561179b5761179a611f44565b5b60006117a984828501611553565b91505092915050565b6117bb81611d8f565b82525050565b6117ca81611da1565b82525050565b60006117db82611ccd565b6117e58185611ce3565b93506117f5818560208601611e12565b6117fe81611f49565b840191505092915050565b600061181482611cd8565b61181e8185611cf4565b935061182e818560208601611e12565b61183781611f49565b840191505092915050565b600061184f603283611cf4565b915061185a82611f5a565b604082019050919050565b6000611872602583611cf4565b915061187d82611fa9565b604082019050919050565b6000611895601c83611cf4565b91506118a082611ff8565b602082019050919050565b60006118b8602483611cf4565b91506118c382612021565b604082019050919050565b60006118db601983611cf4565b91506118e682612070565b602082019050919050565b60006118fe602c83611cf4565b915061190982612099565b604082019050919050565b6000611921603883611cf4565b915061192c826120e8565b604082019050919050565b6000611944602a83611cf4565b915061194f82612137565b604082019050919050565b6000611967602983611cf4565b915061197282612186565b604082019050919050565b600061198a602083611cf4565b9150611995826121d5565b602082019050919050565b60006119ad602c83611cf4565b91506119b8826121fe565b604082019050919050565b60006119d0602183611cf4565b91506119db8261224d565b604082019050919050565b60006119f3603183611cf4565b91506119fe8261229c565b604082019050919050565b611a1281611df9565b82525050565b6000602082019050611a2d60008301846117b2565b92915050565b6000608082019050611a4860008301876117b2565b611a5560208301866117b2565b611a626040830185611a09565b8181036060830152611a7481846117d0565b905095945050505050565b6000602082019050611a9460008301846117c1565b92915050565b60006020820190508181036000830152611ab48184611809565b905092915050565b60006020820190508181036000830152611ad581611842565b9050919050565b60006020820190508181036000830152611af581611865565b9050919050565b60006020820190508181036000830152611b1581611888565b9050919050565b60006020820190508181036000830152611b35816118ab565b9050919050565b60006020820190508181036000830152611b55816118ce565b9050919050565b60006020820190508181036000830152611b75816118f1565b9050919050565b60006020820190508181036000830152611b9581611914565b9050919050565b60006020820190508181036000830152611bb581611937565b9050919050565b60006020820190508181036000830152611bd58161195a565b9050919050565b60006020820190508181036000830152611bf58161197d565b9050919050565b60006020820190508181036000830152611c15816119a0565b9050919050565b60006020820190508181036000830152611c35816119c3565b9050919050565b60006020820190508181036000830152611c55816119e6565b9050919050565b6000602082019050611c716000830184611a09565b92915050565b6000611c81611c92565b9050611c8d8282611e77565b919050565b6000604051905090565b600067ffffffffffffffff821115611cb757611cb6611f06565b5b611cc082611f49565b9050602081019050919050565b600081519050919050565b600081519050919050565b600082825260208201905092915050565b600082825260208201905092915050565b6000611d1082611df9565b9150611d1b83611df9565b9250827fffffffffffffffffffffffffffffffffffffffffffffffffffffffffffffffff03821115611d5057611d4f611ea8565b5b828201905092915050565b6000611d6682611df9565b9150611d7183611df9565b925082821015611d8457611d83611ea8565b5b828203905092915050565b6000611d9a82611dd9565b9050919050565b60008115159050919050565b60007fffffffff0000000000000000000000000000000000000000000000000000000082169050919050565b600073ffffffffffffffffffffffffffffffffffffffff82169050919050565b6000819050919050565b82818337600083830152505050565b60005b83811015611e30578082015181840152602081019050611e15565b83811115611e3f576000848401525b50505050565b60006002820490506001821680611e5d57607f821691505b60208210811415611e7157611e70611ed7565b5b50919050565b611e8082611f49565b810181811067ffffffffffffffff82111715611e9f57611e9e611f06565b5b80604052505050565b7f4e487b7100000000000000000000000000000000000000000000000000000000600052601160045260246000fd5b7f4e487b7100000000000000000000000000000000000000000000000000000000600052602260045260246000fd5b7f4e487b7100000000000000000000000000000000000000000000000000000000600052604160045260246000fd5b600080fd5b600080fd5b600080fd5b600080fd5b6000601f19601f8301169050919050565b7f4552433732313a207472616e7366657220746f206e6f6e20455243373231526560008201527f63656976657220696d706c656d656e7465720000000000000000000000000000602082015250565b7f4552433732313a207472616e736665722066726f6d20696e636f72726563742060008201527f6f776e6572000000000000000000000000000000000000000000000000000000602082015250565b7f4552433732313a20746f6b656e20616c7265616479206d696e74656400000000600082015250565b7f4552433732313a207472616e7366657220746f20746865207a65726f2061646460008201527f7265737300000000000000000000000000000000000000000000000000000000602082015250565b7f4552433732313a20617070726f766520746f2063616c6c657200000000000000600082015250565b7f4552433732313a206f70657261746f7220717565727920666f72206e6f6e657860008201527f697374656e7420746f6b656e0000000000000000000000000000000000000000602082015250565b7f4552433732313a20617070726f76652063616c6c6572206973206e6f74206f7760008201527f6e6572206e6f7220617070726f76656420666f7220616c6c0000000000000000602082015250565b7f4552433732313a2062616c616e636520717565727920666f7220746865207a6560008201527f726f206164647265737300000000000000000000000000000000000000000000602082015250565b7f4552433732313a206f776e657220717565727920666f72206e6f6e657869737460008201527f656e7420746f6b656e0000000000000000000000000000000000000000000000602082015250565b7f4552433732313a206d696e7420746f20746865207a65726f2061646472657373600082015250565b7f4552433732313a20617070726f76656420717565727920666f72206e6f6e657860008201527f697374656e7420746f6b656e0000000000000000000000000000000000000000602082015250565b7f4552433732313a20617070726f76616c20746f2063757272656e74206f776e6560008201527f7200000000000000000000000000000000000000000000000000000000000000602082015250565b7f4552433732313a207472616e736665722063616c6c6572206973206e6f74206f60008201527f776e6572206e6f7220617070726f766564000000000000000000000000000000602082015250565b6122f481611d8f565b81146122ff57600080fd5b50565b61230b81611da1565b811461231657600080fd5b50565b61232281611dad565b811461232d57600080fd5b50565b61233981611df9565b811461234457600080fd5b5056fea2646970667358221220676328d9153598b4bbc170a0505073eea1b5bbcdf5874edcc997c5be212516d664736f6c63430008070033",
  "linkReferences": {},
  "deployedLinkReferences": {}
}