{
  "_format": "hh-sol-artifact-1",
  "contractName": "DynamicSvgNft",
  "sourceName": "contracts/DynamicSvgtNft.sol",
  "abi": [
    {
      "inputs": [
        {
          "internalType": "address",
          "name": "priceFeedAddress",
          "type": "address"
        },
        {
          "internalType": "string",
          "name": "lowSvg",
          "type": "string"
        },
        {
          "internalType": "string",
          "name": "highSvg",
          "type": "string"
        },
        {
          "internalType": "int256",
          "name": "highValue",
          "type": "int256"
        }
      ],
      "stateMutability": "nonpayable",
      "type": "constructor"
    },
    {
      "anonymous": false,
      "inputs": [
        {
          "indexed": true,
          "internalType": "address",
          "name": "owner",
          "type": "address"
        },
        {
          "indexed": true,
          "internalType": "address",
          "name": "approved",
          "type": "address"
        },
        {
          "indexed": true,
          "internalType": "uint256",
          "name": "tokenId",
          "type": "uint256"
        }
      ],
      "name": "Approval",
      "type": "event"
    },
    {
      "anonymous": false,
      "inputs": [
        {
          "indexed": true,
          "internalType": "address",
          "name": "owner",
          "type": "address"
        },
        {
          "indexed": true,
          "internalType": "address",
          "name": "operator",
          "type": "address"
        },
        {
          "indexed": false,
          "internalType": "bool",
          "name": "approved",
          "type": "bool"
        }
      ],
      "name": "ApprovalForAll",
      "type": "event"
    },
    {
      "anonymous": false,
      "inputs": [
        {
          "indexed": true,
          "internalType": "address",
          "name": "from",
          "type": "address"
        },
        {
          "indexed": true,
          "internalType": "address",
          "name": "to",
          "type": "address"
        },
        {
          "indexed": true,
          "internalType": "uint256",
          "name": "tokenId",
          "type": "uint256"
        }
      ],
      "name": "Transfer",
      "type": "event"
    },
    {
      "inputs": [
        {
          "internalType": "address",
          "name": "to",
          "type": "address"
        },
        {
          "internalType": "uint256",
          "name": "tokenId",
          "type": "uint256"
        }
      ],
      "name": "approve",
      "outputs": [],
      "stateMutability": "nonpayable",
      "type": "function"
    },
    {
      "inputs": [
        {
          "internalType": "address",
          "name": "owner",
          "type": "address"
        }
      ],
      "name": "balanceOf",
      "outputs": [
        {
          "internalType": "uint256",
          "name": "",
          "type": "uint256"
        }
      ],
      "stateMutability": "view",
      "type": "function"
    },
    {
      "inputs": [
        {
          "internalType": "uint256",
          "name": "tokenId",
          "type": "uint256"
        }
      ],
      "name": "getApproved",
      "outputs": [
        {
          "internalType": "address",
          "name": "",
          "type": "address"
        }
      ],
      "stateMutability": "view",
      "type": "function"
    },
    {
      "inputs": [],
      "name": "i_highValue",
      "outputs": [
        {
          "internalType": "int256",
          "name": "",
          "type": "int256"
        }
      ],
      "stateMutability": "view",
      "type": "function"
    },
    {
      "inputs": [],
      "name": "i_priceFeed",
      "outputs": [
        {
          "internalType": "contract AggregatorV3Interface",
          "name": "",
          "type": "address"
        }
      ],
      "stateMutability": "view",
      "type": "function"
    },
    {
      "inputs": [
        {
          "internalType": "address",
          "name": "owner",
          "type": "address"
        },
        {
          "internalType": "address",
          "name": "operator",
          "type": "address"
        }
      ],
      "name": "isApprovedForAll",
      "outputs": [
        {
          "internalType": "bool",
          "name": "",
          "type": "bool"
        }
      ],
      "stateMutability": "view",
      "type": "function"
    },
    {
      "inputs": [],
      "name": "mintNft",
      "outputs": [],
      "stateMutability": "nonpayable",
      "type": "function"
    },
    {
      "inputs": [],
      "name": "name",
      "outputs": [
        {
          "internalType": "string",
          "name": "",
          "type": "string"
        }
      ],
      "stateMutability": "view",
      "type": "function"
    },
    {
      "inputs": [
        {
          "internalType": "uint256",
          "name": "tokenId",
          "type": "uint256"
        }
      ],
      "name": "ownerOf",
      "outputs": [
        {
          "internalType": "address",
          "name": "",
          "type": "address"
        }
      ],
      "stateMutability": "view",
      "type": "function"
    },
    {
      "inputs": [],
      "name": "s_highImageURI",
      "outputs": [
        {
          "internalType": "string",
          "name": "",
          "type": "string"
        }
      ],
      "stateMutability": "view",
      "type": "function"
    },
    {
      "inputs": [],
      "name": "s_lowImageURI",
      "outputs": [
        {
          "internalType": "string",
          "name": "",
          "type": "string"
        }
      ],
      "stateMutability": "view",
      "type": "function"
    },
    {
      "inputs": [],
      "name": "s_tokenCounter",
      "outputs": [
        {
          "internalType": "uint256",
          "name": "",
          "type": "uint256"
        }
      ],
      "stateMutability": "view",
      "type": "function"
    },
    {
      "inputs": [
        {
          "internalType": "address",
          "name": "from",
          "type": "address"
        },
        {
          "internalType": "address",
          "name": "to",
          "type": "address"
        },
        {
          "internalType": "uint256",
          "name": "tokenId",
          "type": "uint256"
        }
      ],
      "name": "safeTransferFrom",
      "outputs": [],
      "stateMutability": "nonpayable",
      "type": "function"
    },
    {
      "inputs": [
        {
          "internalType": "address",
          "name": "from",
          "type": "address"
        },
        {
          "internalType": "address",
          "name": "to",
          "type": "address"
        },
        {
          "internalType": "uint256",
          "name": "tokenId",
          "type": "uint256"
        },
        {
          "internalType": "bytes",
          "name": "_data",
          "type": "bytes"
        }
      ],
      "name": "safeTransferFrom",
      "outputs": [],
      "stateMutability": "nonpayable",
      "type": "function"
    },
    {
      "inputs": [
        {
          "internalType": "address",
          "name": "operator",
          "type": "address"
        },
        {
          "internalType": "bool",
          "name": "approved",
          "type": "bool"
        }
      ],
      "name": "setApprovalForAll",
      "outputs": [],
      "stateMutability": "nonpayable",
      "type": "function"
    },
    {
      "inputs": [
        {
          "internalType": "bytes4",
          "name": "interfaceId",
          "type": "bytes4"
        }
      ],
      "name": "supportsInterface",
      "outputs": [
        {
          "internalType": "bool",
          "name": "",
          "type": "bool"
        }
      ],
      "stateMutability": "view",
      "type": "function"
    },
    {
      "inputs": [
        {
          "internalType": "string",
          "name": "svg",
          "type": "string"
        }
      ],
      "name": "svgToImageURI",
      "outputs": [
        {
          "internalType": "string",
          "name": "",
          "type": "string"
        }
      ],
      "stateMutability": "pure",
      "type": "function"
    },
    {
      "inputs": [],
      "name": "symbol",
      "outputs": [
        {
          "internalType": "string",
          "name": "",
          "type": "string"
        }
      ],
      "stateMutability": "view",
      "type": "function"
    },
    {
      "inputs": [
        {
          "internalType": "uint256",
          "name": "",
          "type": "uint256"
        }
      ],
      "name": "tokenURI",
      "outputs": [
        {
          "internalType": "string",
          "name": "",
          "type": "string"
        }
      ],
      "stateMutability": "view",
      "type": "function"
    },
    {
      "inputs": [
        {
          "internalType": "address",
          "name": "from",
          "type": "address"
        },
        {
          "internalType": "address",
          "name": "to",
          "type": "address"
        },
        {
          "internalType": "uint256",
          "name": "tokenId",
          "type": "uint256"
        }
      ],
      "name": "transferFrom",
      "outputs": [],
      "stateMutability": "nonpayable",
      "type": "function"
    }
  ],
  "bytecode": "0x60c06040523480156200001157600080fd5b506040516200394f3803806200394f833981810160405281019062000037919062000508565b6040518060400160405280600f81526020017f44796e616d696320535647204e465400000000000000000000000000000000008152506040518060400160405280600381526020017f44534e00000000000000000000000000000000000000000000000000000000008152508160009080519060200190620000bb929190620003ac565b508060019080519060200190620000d4929190620003ac565b5050506000600681905550620000f0836200017a60201b60201c565b6007908051906020019062000107929190620003ac565b5062000119826200017a60201b60201c565b6008908051906020019062000130929190620003ac565b508373ffffffffffffffffffffffffffffffffffffffff1660a08173ffffffffffffffffffffffffffffffffffffffff1660601b815250508060808181525050505050506200099a565b606060006040518060400160405280601a81526020017f646174613a696d6167652f7376672b786d6c3b6261736536342c00000000000081525090506000620001ef84604051602001620001cf9190620005ef565b6040516020818303038152906040526200021e60201b62000ef81760201c565b905081816040516020016200020692919062000608565b60405160208183030381529060405292505050919050565b60606000825114156200024357604051806020016040528060008152509050620003a7565b60006040518060600160405280604081526020016200390f6040913990506000600360028551620002759190620006a5565b62000281919062000702565b60046200028f91906200073a565b90506000602082620002a29190620006a5565b67ffffffffffffffff811115620002be57620002bd62000912565b5b6040519080825280601f01601f191660200182016040528015620002f15781602001600182028036833780820191505090505b509050818152600183018586518101602084015b8183101562000362576003830192508251603f8160121c168501518253600182019150603f81600c1c168501518253600182019150603f8160061c168501518253600182019150603f811685015182536001820191505062000305565b6003895106600181146200037f576002811462000390576200039b565b613d3d60f01b60028303526200039b565b603d60f81b60018303525b50505050508093505050505b919050565b828054620003ba9062000819565b90600052602060002090601f016020900481019282620003de57600085556200042a565b82601f10620003f957805160ff19168380011785556200042a565b828001600101855582156200042a579182015b82811115620004295782518255916020019190600101906200040c565b5b5090506200043991906200043d565b5090565b5b80821115620004585760008160009055506001016200043e565b5090565b6000620004736200046d8462000659565b62000630565b90508281526020810184848401111562000492576200049162000946565b5b6200049f848285620007e3565b509392505050565b600081519050620004b88162000966565b92915050565b600081519050620004cf8162000980565b92915050565b600082601f830112620004ed57620004ec62000941565b5b8151620004ff8482602086016200045c565b91505092915050565b6000806000806080858703121562000525576200052462000950565b5b60006200053587828801620004a7565b945050602085015167ffffffffffffffff8111156200055957620005586200094b565b5b6200056787828801620004d5565b935050604085015167ffffffffffffffff8111156200058b576200058a6200094b565b5b6200059987828801620004d5565b9250506060620005ac87828801620004be565b91505092959194509250565b6000620005c5826200068f565b620005d181856200069a565b9350620005e3818560208601620007e3565b80840191505092915050565b6000620005fd8284620005b8565b915081905092915050565b6000620006168285620005b8565b9150620006248284620005b8565b91508190509392505050565b60006200063c6200064f565b90506200064a82826200084f565b919050565b6000604051905090565b600067ffffffffffffffff82111562000677576200067662000912565b5b620006828262000955565b9050602081019050919050565b600081519050919050565b600081905092915050565b6000620006b282620007d9565b9150620006bf83620007d9565b9250827fffffffffffffffffffffffffffffffffffffffffffffffffffffffffffffffff03821115620006f757620006f662000885565b5b828201905092915050565b60006200070f82620007d9565b91506200071c83620007d9565b9250826200072f576200072e620008b4565b5b828204905092915050565b60006200074782620007d9565b91506200075483620007d9565b9250817fffffffffffffffffffffffffffffffffffffffffffffffffffffffffffffffff048311821515161562000790576200078f62000885565b5b828202905092915050565b6000620007a882620007b9565b9050919050565b6000819050919050565b600073ffffffffffffffffffffffffffffffffffffffff82169050919050565b6000819050919050565b60005b8381101562000803578082015181840152602081019050620007e6565b8381111562000813576000848401525b50505050565b600060028204905060018216806200083257607f821691505b60208210811415620008495762000848620008e3565b5b50919050565b6200085a8262000955565b810181811067ffffffffffffffff821117156200087c576200087b62000912565b5b80604052505050565b7f4e487b7100000000000000000000000000000000000000000000000000000000600052601160045260246000fd5b7f4e487b7100000000000000000000000000000000000000000000000000000000600052601260045260246000fd5b7f4e487b7100000000000000000000000000000000000000000000000000000000600052602260045260246000fd5b7f4e487b7100000000000000000000000000000000000000000000000000000000600052604160045260246000fd5b600080fd5b600080fd5b600080fd5b600080fd5b6000601f19601f8301169050919050565b62000971816200079b565b81146200097d57600080fd5b50565b6200098b81620007af565b81146200099757600080fd5b50565b60805160a05160601c612f3e620009d160003960008181610a310152610b86015260008181610a0d0152610cb90152612f3e6000f3fe608060405234801561001057600080fd5b506004361061012c5760003560e01c806370a08231116100ad578063b88d4fde11610071578063b88d4fde14610345578063c2229fea14610361578063c87b56dd1461036b578063e2c6d0e11461039b578063e985e9c5146103b95761012c565b806370a082311461029f5780637e5bc3de146102cf578063957b8956146102ed57806395d89b411461030b578063a22cb465146103295761012c565b80631c05364a116100f45780631c05364a146101e957806323b872dd1461020757806330d871c61461022357806342842e0e146102535780636352211e1461026f5761012c565b806301ffc9a71461013157806306fdde0314610161578063081812fc1461017f578063095ea7b3146101af5780630b21a83b146101cb575b600080fd5b61014b60048036038101906101469190611eb5565b6103e9565b604051610158919061238f565b60405180910390f35b6101696104cb565b60405161017691906123e0565b60405180910390f35b61019960048036038101906101949190611f58565b61055d565b6040516101a69190612328565b60405180910390f35b6101c960048036038101906101c49190611e75565b6105e2565b005b6101d36106fa565b6040516101e091906125a2565b60405180910390f35b6101f1610700565b6040516101fe91906123e0565b60405180910390f35b610221600480360381019061021c9190611d5f565b61078e565b005b61023d60048036038101906102389190611f0f565b6107ee565b60405161024a91906123e0565b60405180910390f35b61026d60048036038101906102689190611d5f565b610881565b005b61028960048036038101906102849190611f58565b6108a1565b6040516102969190612328565b60405180910390f35b6102b960048036038101906102b49190611cf2565b610953565b6040516102c691906125a2565b60405180910390f35b6102d7610a0b565b6040516102e491906123c5565b60405180910390f35b6102f5610a2f565b60405161030291906123aa565b60405180910390f35b610313610a53565b60405161032091906123e0565b60405180910390f35b610343600480360381019061033e9190611e35565b610ae5565b005b61035f600480360381019061035a9190611db2565b610afb565b005b610369610b5d565b005b61038560048036038101906103809190611f58565b610b80565b60405161039291906123e0565b60405180910390f35b6103a3610dd6565b6040516103b091906123e0565b60405180910390f35b6103d360048036038101906103ce9190611d1f565b610e64565b6040516103e0919061238f565b60405180910390f35b60007f80ac58cd000000000000000000000000000000000000000000000000000000007bffffffffffffffffffffffffffffffffffffffffffffffffffffffff1916827bffffffffffffffffffffffffffffffffffffffffffffffffffffffff191614806104b457507f5b5e139f000000000000000000000000000000000000000000000000000000007bffffffffffffffffffffffffffffffffffffffffffffffffffffffff1916827bffffffffffffffffffffffffffffffffffffffffffffffffffffffff1916145b806104c457506104c382611071565b5b9050919050565b6060600080546104da906128a8565b80601f0160208091040260200160405190810160405280929190818152602001828054610506906128a8565b80156105535780601f1061052857610100808354040283529160200191610553565b820191906000526020600020905b81548152906001019060200180831161053657829003601f168201915b5050505050905090565b6000610568826110db565b6105a7576040517f08c379a000000000000000000000000000000000000000000000000000000000815260040161059e90612542565b60405180910390fd5b6004600083815260200190815260200160002060009054906101000a900473ffffffffffffffffffffffffffffffffffffffff169050919050565b60006105ed826108a1565b90508073ffffffffffffffffffffffffffffffffffffffff168373ffffffffffffffffffffffffffffffffffffffff16141561065e576040517f08c379a000000000000000000000000000000000000000000000000000000000815260040161065590612562565b60405180910390fd5b8073ffffffffffffffffffffffffffffffffffffffff1661067d611147565b73ffffffffffffffffffffffffffffffffffffffff1614806106ac57506106ab816106a6611147565b610e64565b5b6106eb576040517f08c379a00000000000000000000000000000000000000000000000000000000081526004016106e2906124c2565b60405180910390fd5b6106f5838361114f565b505050565b60065481565b6008805461070d906128a8565b80601f0160208091040260200160405190810160405280929190818152602001828054610739906128a8565b80156107865780601f1061075b57610100808354040283529160200191610786565b820191906000526020600020905b81548152906001019060200180831161076957829003601f168201915b505050505081565b61079f610799611147565b82611208565b6107de576040517f08c379a00000000000000000000000000000000000000000000000000000000081526004016107d590612582565b60405180910390fd5b6107e98383836112e6565b505050565b606060006040518060400160405280601a81526020017f646174613a696d6167652f7376672b786d6c3b6261736536342c000000000000815250905060006108548460405160200161084091906122d8565b604051602081830303815290604052610ef8565b905081816040516020016108699291906122ef565b60405160208183030381529060405292505050919050565b61089c83838360405180602001604052806000815250610afb565b505050565b6000806002600084815260200190815260200160002060009054906101000a900473ffffffffffffffffffffffffffffffffffffffff169050600073ffffffffffffffffffffffffffffffffffffffff168173ffffffffffffffffffffffffffffffffffffffff16141561094a576040517f08c379a000000000000000000000000000000000000000000000000000000000815260040161094190612502565b60405180910390fd5b80915050919050565b60008073ffffffffffffffffffffffffffffffffffffffff168273ffffffffffffffffffffffffffffffffffffffff1614156109c4576040517f08c379a00000000000000000000000000000000000000000000000000000000081526004016109bb906124e2565b60405180910390fd5b600360008373ffffffffffffffffffffffffffffffffffffffff1673ffffffffffffffffffffffffffffffffffffffff168152602001908152602001600020549050919050565b7f000000000000000000000000000000000000000000000000000000000000000081565b7f000000000000000000000000000000000000000000000000000000000000000081565b606060018054610a62906128a8565b80601f0160208091040260200160405190810160405280929190818152602001828054610a8e906128a8565b8015610adb5780601f10610ab057610100808354040283529160200191610adb565b820191906000526020600020905b815481529060010190602001808311610abe57829003601f168201915b5050505050905090565b610af7610af0611147565b838361154d565b5050565b610b0c610b06611147565b83611208565b610b4b576040517f08c379a0000000000000000000000000000000000000000000000000000000008152600401610b4290612582565b60405180910390fd5b610b57848484846116ba565b50505050565b610b6933600654611716565b6001600654610b789190612687565b600681905550565b606060007f000000000000000000000000000000000000000000000000000000000000000073ffffffffffffffffffffffffffffffffffffffff1663feaf968c6040518163ffffffff1660e01b815260040160a06040518083038186803b158015610bea57600080fd5b505afa158015610bfe573d6000803e3d6000fd5b505050506040513d601f19601f82011682018060405250810190610c229190611f85565b505050915050600060078054610c37906128a8565b80601f0160208091040260200160405190810160405280929190818152602001828054610c63906128a8565b8015610cb05780601f10610c8557610100808354040283529160200191610cb0565b820191906000526020600020905b815481529060010190602001808311610c9357829003601f168201915b505050505090507f0000000000000000000000000000000000000000000000000000000000000000821315610d6d5760088054610cec906128a8565b80601f0160208091040260200160405190810160405280929190818152602001828054610d18906128a8565b8015610d655780601f10610d3a57610100808354040283529160200191610d65565b820191906000526020600020905b815481529060010190602001808311610d4857829003601f168201915b505050505090505b6000604051602001610d7e90612313565b604051602081830303815290604052905060008190506000610d9f82610ef8565b9050610da9611734565b81604051602001610dbb9291906122ef565b60405160208183030381529060405295505050505050919050565b60078054610de3906128a8565b80601f0160208091040260200160405190810160405280929190818152602001828054610e0f906128a8565b8015610e5c5780601f10610e3157610100808354040283529160200191610e5c565b820191906000526020600020905b815481529060010190602001808311610e3f57829003601f168201915b505050505081565b6000600560008473ffffffffffffffffffffffffffffffffffffffff1673ffffffffffffffffffffffffffffffffffffffff16815260200190815260200160002060008373ffffffffffffffffffffffffffffffffffffffff1673ffffffffffffffffffffffffffffffffffffffff16815260200190815260200160002060009054906101000a900460ff16905092915050565b6060600082511415610f1b5760405180602001604052806000815250905061106c565b6000604051806060016040528060408152602001612ec96040913990506000600360028551610f4a9190612687565b610f5491906126dd565b6004610f60919061270e565b90506000602082610f719190612687565b67ffffffffffffffff811115610f8a57610f89612998565b5b6040519080825280601f01601f191660200182016040528015610fbc5781602001600182028036833780820191505090505b509050818152600183018586518101602084015b8183101561102b576003830192508251603f8160121c168501518253600182019150603f81600c1c168501518253600182019150603f8160061c168501518253600182019150603f8116850151825360018201915050610fd0565b600389510660018114611045576002811461105557611060565b613d3d60f01b6002830352611060565b603d60f81b60018303525b50505050508093505050505b919050565b60007f01ffc9a7000000000000000000000000000000000000000000000000000000007bffffffffffffffffffffffffffffffffffffffffffffffffffffffff1916827bffffffffffffffffffffffffffffffffffffffffffffffffffffffff1916149050919050565b60008073ffffffffffffffffffffffffffffffffffffffff166002600084815260200190815260200160002060009054906101000a900473ffffffffffffffffffffffffffffffffffffffff1673ffffffffffffffffffffffffffffffffffffffff1614159050919050565b600033905090565b816004600083815260200190815260200160002060006101000a81548173ffffffffffffffffffffffffffffffffffffffff021916908373ffffffffffffffffffffffffffffffffffffffff160217905550808273ffffffffffffffffffffffffffffffffffffffff166111c2836108a1565b73ffffffffffffffffffffffffffffffffffffffff167f8c5be1e5ebec7d5bd14f71427d1e84f3dd0314c0f7b2291e5b200ac8c7c3b92560405160405180910390a45050565b6000611213826110db565b611252576040517f08c379a0000000000000000000000000000000000000000000000000000000008152600401611249906124a2565b60405180910390fd5b600061125d836108a1565b90508073ffffffffffffffffffffffffffffffffffffffff168473ffffffffffffffffffffffffffffffffffffffff16148061129f575061129e8185610e64565b5b806112dd57508373ffffffffffffffffffffffffffffffffffffffff166112c58461055d565b73ffffffffffffffffffffffffffffffffffffffff16145b91505092915050565b8273ffffffffffffffffffffffffffffffffffffffff16611306826108a1565b73ffffffffffffffffffffffffffffffffffffffff161461135c576040517f08c379a000000000000000000000000000000000000000000000000000000000815260040161135390612422565b60405180910390fd5b600073ffffffffffffffffffffffffffffffffffffffff168273ffffffffffffffffffffffffffffffffffffffff1614156113cc576040517f08c379a00000000000000000000000000000000000000000000000000000000081526004016113c390612462565b60405180910390fd5b6113d7838383611771565b6113e260008261114f565b6001600360008573ffffffffffffffffffffffffffffffffffffffff1673ffffffffffffffffffffffffffffffffffffffff16815260200190815260200160002060008282546114329190612768565b925050819055506001600360008473ffffffffffffffffffffffffffffffffffffffff1673ffffffffffffffffffffffffffffffffffffffff16815260200190815260200160002060008282546114899190612687565b92505081905550816002600083815260200190815260200160002060006101000a81548173ffffffffffffffffffffffffffffffffffffffff021916908373ffffffffffffffffffffffffffffffffffffffff160217905550808273ffffffffffffffffffffffffffffffffffffffff168473ffffffffffffffffffffffffffffffffffffffff167fddf252ad1be2c89b69c2b068fc378daa952ba7f163c4a11628f55a4df523b3ef60405160405180910390a4611548838383611776565b505050565b8173ffffffffffffffffffffffffffffffffffffffff168373ffffffffffffffffffffffffffffffffffffffff1614156115bc576040517f08c379a00000000000000000000000000000000000000000000000000000000081526004016115b390612482565b60405180910390fd5b80600560008573ffffffffffffffffffffffffffffffffffffffff1673ffffffffffffffffffffffffffffffffffffffff16815260200190815260200160002060008473ffffffffffffffffffffffffffffffffffffffff1673ffffffffffffffffffffffffffffffffffffffff16815260200190815260200160002060006101000a81548160ff0219169083151502179055508173ffffffffffffffffffffffffffffffffffffffff168373ffffffffffffffffffffffffffffffffffffffff167f17307eab39ab6107e8899845ad3d59bd9653f200f220920489ca2b5937696c31836040516116ad919061238f565b60405180910390a3505050565b6116c58484846112e6565b6116d18484848461177b565b611710576040517f08c379a000000000000000000000000000000000000000000000000000000000815260040161170790612402565b60405180910390fd5b50505050565b611730828260405180602001604052806000815250611912565b5050565b60606040518060400160405280601581526020017f646174613a6170706c69636174696f6e2f6a736f6e0000000000000000000000815250905090565b505050565b505050565b600061179c8473ffffffffffffffffffffffffffffffffffffffff1661196d565b15611905578373ffffffffffffffffffffffffffffffffffffffff1663150b7a026117c5611147565b8786866040518563ffffffff1660e01b81526004016117e79493929190612343565b602060405180830381600087803b15801561180157600080fd5b505af192505050801561183257506040513d601f19601f8201168201806040525081019061182f9190611ee2565b60015b6118b5573d8060008114611862576040519150601f19603f3d011682016040523d82523d6000602084013e611867565b606091505b506000815114156118ad576040517f08c379a00000000000000000000000000000000000000000000000000000000081526004016118a490612402565b60405180910390fd5b805181602001fd5b63150b7a0260e01b7bffffffffffffffffffffffffffffffffffffffffffffffffffffffff1916817bffffffffffffffffffffffffffffffffffffffffffffffffffffffff19161491505061190a565b600190505b949350505050565b61191c8383611990565b611929600084848461177b565b611968576040517f08c379a000000000000000000000000000000000000000000000000000000000815260040161195f90612402565b60405180910390fd5b505050565b6000808273ffffffffffffffffffffffffffffffffffffffff163b119050919050565b600073ffffffffffffffffffffffffffffffffffffffff168273ffffffffffffffffffffffffffffffffffffffff161415611a00576040517f08c379a00000000000000000000000000000000000000000000000000000000081526004016119f790612522565b60405180910390fd5b611a09816110db565b15611a49576040517f08c379a0000000000000000000000000000000000000000000000000000000008152600401611a4090612442565b60405180910390fd5b611a5560008383611771565b6001600360008473ffffffffffffffffffffffffffffffffffffffff1673ffffffffffffffffffffffffffffffffffffffff1681526020019081526020016000206000828254611aa59190612687565b92505081905550816002600083815260200190815260200160002060006101000a81548173ffffffffffffffffffffffffffffffffffffffff021916908373ffffffffffffffffffffffffffffffffffffffff160217905550808273ffffffffffffffffffffffffffffffffffffffff16600073ffffffffffffffffffffffffffffffffffffffff167fddf252ad1be2c89b69c2b068fc378daa952ba7f163c4a11628f55a4df523b3ef60405160405180910390a4611b6660008383611776565b5050565b6000611b7d611b78846125e2565b6125bd565b905082815260208101848484011115611b9957611b986129cc565b5b611ba4848285612866565b509392505050565b6000611bbf611bba84612613565b6125bd565b905082815260208101848484011115611bdb57611bda6129cc565b5b611be6848285612866565b509392505050565b600081359050611bfd81612e3e565b92915050565b600081359050611c1281612e55565b92915050565b600081359050611c2781612e6c565b92915050565b600081519050611c3c81612e6c565b92915050565b600082601f830112611c5757611c566129c7565b5b8135611c67848260208601611b6a565b91505092915050565b600081519050611c7f81612e83565b92915050565b600082601f830112611c9a57611c996129c7565b5b8135611caa848260208601611bac565b91505092915050565b600081359050611cc281612e9a565b92915050565b600081519050611cd781612e9a565b92915050565b600081519050611cec81612eb1565b92915050565b600060208284031215611d0857611d076129d6565b5b6000611d1684828501611bee565b91505092915050565b60008060408385031215611d3657611d356129d6565b5b6000611d4485828601611bee565b9250506020611d5585828601611bee565b9150509250929050565b600080600060608486031215611d7857611d776129d6565b5b6000611d8686828701611bee565b9350506020611d9786828701611bee565b9250506040611da886828701611cb3565b9150509250925092565b60008060008060808587031215611dcc57611dcb6129d6565b5b6000611dda87828801611bee565b9450506020611deb87828801611bee565b9350506040611dfc87828801611cb3565b925050606085013567ffffffffffffffff811115611e1d57611e1c6129d1565b5b611e2987828801611c42565b91505092959194509250565b60008060408385031215611e4c57611e4b6129d6565b5b6000611e5a85828601611bee565b9250506020611e6b85828601611c03565b9150509250929050565b60008060408385031215611e8c57611e8b6129d6565b5b6000611e9a85828601611bee565b9250506020611eab85828601611cb3565b9150509250929050565b600060208284031215611ecb57611eca6129d6565b5b6000611ed984828501611c18565b91505092915050565b600060208284031215611ef857611ef76129d6565b5b6000611f0684828501611c2d565b91505092915050565b600060208284031215611f2557611f246129d6565b5b600082013567ffffffffffffffff811115611f4357611f426129d1565b5b611f4f84828501611c85565b91505092915050565b600060208284031215611f6e57611f6d6129d6565b5b6000611f7c84828501611cb3565b91505092915050565b600080600080600060a08688031215611fa157611fa06129d6565b5b6000611faf88828901611cdd565b9550506020611fc088828901611c70565b9450506040611fd188828901611cc8565b9350506060611fe288828901611cc8565b9250506080611ff388828901611cdd565b9150509295509295909350565b6120098161279c565b82525050565b612018816127ae565b82525050565b600061202982612644565b612033818561265a565b9350612043818560208601612875565b61204c816129db565b840191505092915050565b61206081612830565b82525050565b61206f816127e6565b82525050565b60006120808261264f565b61208a818561266b565b935061209a818560208601612875565b6120a3816129db565b840191505092915050565b60006120b98261264f565b6120c3818561267c565b93506120d3818560208601612875565b80840191505092915050565b60006120ec60818361267c565b91506120f7826129ec565b608182019050919050565b600061210f60328361266b565b915061211a82612aad565b604082019050919050565b600061213260258361266b565b915061213d82612afc565b604082019050919050565b6000612155601c8361266b565b915061216082612b4b565b602082019050919050565b600061217860248361266b565b915061218382612b74565b604082019050919050565b600061219b60198361266b565b91506121a682612bc3565b602082019050919050565b60006121be602c8361266b565b91506121c982612bec565b604082019050919050565b60006121e160388361266b565b91506121ec82612c3b565b604082019050919050565b6000612204602a8361266b565b915061220f82612c8a565b604082019050919050565b600061222760298361266b565b915061223282612cd9565b604082019050919050565b600061224a60208361266b565b915061225582612d28565b602082019050919050565b600061226d602c8361266b565b915061227882612d51565b604082019050919050565b600061229060218361266b565b915061229b82612da0565b604082019050919050565b60006122b360318361266b565b91506122be82612def565b604082019050919050565b6122d281612810565b82525050565b60006122e482846120ae565b915081905092915050565b60006122fb82856120ae565b915061230782846120ae565b91508190509392505050565b600061231e826120df565b9150819050919050565b600060208201905061233d6000830184612000565b92915050565b60006080820190506123586000830187612000565b6123656020830186612000565b61237260408301856122c9565b8181036060830152612384818461201e565b905095945050505050565b60006020820190506123a4600083018461200f565b92915050565b60006020820190506123bf6000830184612057565b92915050565b60006020820190506123da6000830184612066565b92915050565b600060208201905081810360008301526123fa8184612075565b905092915050565b6000602082019050818103600083015261241b81612102565b9050919050565b6000602082019050818103600083015261243b81612125565b9050919050565b6000602082019050818103600083015261245b81612148565b9050919050565b6000602082019050818103600083015261247b8161216b565b9050919050565b6000602082019050818103600083015261249b8161218e565b9050919050565b600060208201905081810360008301526124bb816121b1565b9050919050565b600060208201905081810360008301526124db816121d4565b9050919050565b600060208201905081810360008301526124fb816121f7565b9050919050565b6000602082019050818103600083015261251b8161221a565b9050919050565b6000602082019050818103600083015261253b8161223d565b9050919050565b6000602082019050818103600083015261255b81612260565b9050919050565b6000602082019050818103600083015261257b81612283565b9050919050565b6000602082019050818103600083015261259b816122a6565b9050919050565b60006020820190506125b760008301846122c9565b92915050565b60006125c76125d8565b90506125d382826128da565b919050565b6000604051905090565b600067ffffffffffffffff8211156125fd576125fc612998565b5b612606826129db565b9050602081019050919050565b600067ffffffffffffffff82111561262e5761262d612998565b5b612637826129db565b9050602081019050919050565b600081519050919050565b600081519050919050565b600082825260208201905092915050565b600082825260208201905092915050565b600081905092915050565b600061269282612810565b915061269d83612810565b9250827fffffffffffffffffffffffffffffffffffffffffffffffffffffffffffffffff038211156126d2576126d161290b565b5b828201905092915050565b60006126e882612810565b91506126f383612810565b9250826127035761270261293a565b5b828204905092915050565b600061271982612810565b915061272483612810565b9250817fffffffffffffffffffffffffffffffffffffffffffffffffffffffffffffffff048311821515161561275d5761275c61290b565b5b828202905092915050565b600061277382612810565b915061277e83612810565b9250828210156127915761279061290b565b5b828203905092915050565b60006127a7826127f0565b9050919050565b60008115159050919050565b60007fffffffff0000000000000000000000000000000000000000000000000000000082169050919050565b6000819050919050565b600073ffffffffffffffffffffffffffffffffffffffff82169050919050565b6000819050919050565b600069ffffffffffffffffffff82169050919050565b600061283b82612842565b9050919050565b600061284d82612854565b9050919050565b600061285f826127f0565b9050919050565b82818337600083830152505050565b60005b83811015612893578082015181840152602081019050612878565b838111156128a2576000848401525b50505050565b600060028204905060018216806128c057607f821691505b602082108114156128d4576128d3612969565b5b50919050565b6128e3826129db565b810181811067ffffffffffffffff8211171561290257612901612998565b5b80604052505050565b7f4e487b7100000000000000000000000000000000000000000000000000000000600052601160045260246000fd5b7f4e487b7100000000000000000000000000000000000000000000000000000000600052601260045260246000fd5b7f4e487b7100000000000000000000000000000000000000000000000000000000600052602260045260246000fd5b7f4e487b7100000000000000000000000000000000000000000000000000000000600052604160045260246000fd5b600080fd5b600080fd5b600080fd5b600080fd5b6000601f19601f8301169050919050565b7f7b226e616d65223a2244796e616d696320535647222c2022646573637269707460008201527f696f6e223a20226120636f6f6c204e4654222c2022617474726962757465732260208201527f3a5b7b2274726169745f74797065223a22636f6f6c6e657373222c2276616c7560408201527f65223a3130307d5d2c2022696d616765223a222c696d6167655572692c22222260608201527f7d00000000000000000000000000000000000000000000000000000000000000608082015250565b7f4552433732313a207472616e7366657220746f206e6f6e20455243373231526560008201527f63656976657220696d706c656d656e7465720000000000000000000000000000602082015250565b7f4552433732313a207472616e736665722066726f6d20696e636f72726563742060008201527f6f776e6572000000000000000000000000000000000000000000000000000000602082015250565b7f4552433732313a20746f6b656e20616c7265616479206d696e74656400000000600082015250565b7f4552433732313a207472616e7366657220746f20746865207a65726f2061646460008201527f7265737300000000000000000000000000000000000000000000000000000000602082015250565b7f4552433732313a20617070726f766520746f2063616c6c657200000000000000600082015250565b7f4552433732313a206f70657261746f7220717565727920666f72206e6f6e657860008201527f697374656e7420746f6b656e0000000000000000000000000000000000000000602082015250565b7f4552433732313a20617070726f76652063616c6c6572206973206e6f74206f7760008201527f6e6572206e6f7220617070726f76656420666f7220616c6c0000000000000000602082015250565b7f4552433732313a2062616c616e636520717565727920666f7220746865207a6560008201527f726f206164647265737300000000000000000000000000000000000000000000602082015250565b7f4552433732313a206f776e657220717565727920666f72206e6f6e657869737460008201527f656e7420746f6b656e0000000000000000000000000000000000000000000000602082015250565b7f4552433732313a206d696e7420746f20746865207a65726f2061646472657373600082015250565b7f4552433732313a20617070726f76656420717565727920666f72206e6f6e657860008201527f697374656e7420746f6b656e0000000000000000000000000000000000000000602082015250565b7f4552433732313a20617070726f76616c20746f2063757272656e74206f776e6560008201527f7200000000000000000000000000000000000000000000000000000000000000602082015250565b7f4552433732313a207472616e736665722063616c6c6572206973206e6f74206f60008201527f776e6572206e6f7220617070726f766564000000000000000000000000000000602082015250565b612e478161279c565b8114612e5257600080fd5b50565b612e5e816127ae565b8114612e6957600080fd5b50565b612e75816127ba565b8114612e8057600080fd5b50565b612e8c816127e6565b8114612e9757600080fd5b50565b612ea381612810565b8114612eae57600080fd5b50565b612eba8161281a565b8114612ec557600080fd5b5056fe4142434445464748494a4b4c4d4e4f505152535455565758595a6162636465666768696a6b6c6d6e6f707172737475767778797a303132333435363738392b2fa2646970667358221220febef54bdb8fa6bfdf209e12a4b396bd298b33b3c8feb3cea698dc1b89f0382864736f6c634300080700334142434445464748494a4b4c4d4e4f505152535455565758595a6162636465666768696a6b6c6d6e6f707172737475767778797a303132333435363738392b2f",
  "linkReferences": {},
  "deployedLinkReferences": {}
}